{
  "contractName": "Users",
  "abi": [
    {
      "constant": false,
      "inputs": [
        {
          "internalType": "string",
          "name": "email",
          "type": "string"
        },
        {
          "internalType": "string",
          "name": "password",
          "type": "string"
        }
      ],
      "name": "register",
      "outputs": [
        {
          "internalType": "bool",
          "name": "",
          "type": "bool"
        }
      ],
      "payable": false,
      "stateMutability": "nonpayable",
      "type": "function"
    },
    {
      "constant": true,
      "inputs": [
        {
          "internalType": "string",
          "name": "email",
          "type": "string"
        },
        {
          "internalType": "string",
          "name": "password",
          "type": "string"
        }
      ],
      "name": "login",
      "outputs": [
        {
          "internalType": "bool",
          "name": "",
          "type": "bool"
        }
      ],
      "payable": false,
      "stateMutability": "view",
      "type": "function"
    },
    {
      "constant": true,
      "inputs": [
        {
          "internalType": "string",
          "name": "email",
          "type": "string"
        }
      ],
      "name": "exists",
      "outputs": [
        {
          "internalType": "bool",
          "name": "",
          "type": "bool"
        }
      ],
      "payable": false,
      "stateMutability": "view",
      "type": "function"
    }
  ],
  "bytecode": "0x608060405234801561001057600080fd5b50610850806100206000396000f3fe608060405234801561001057600080fd5b50600436106100415760003560e01c8063261a323e146100465780633ffbd47f1461011957806358467dbc14610283575b600080fd5b6100ff6004803603602081101561005c57600080fd5b810190808035906020019064010000000081111561007957600080fd5b82018360208201111561008b57600080fd5b803590602001918460018302840111640100000000831117156100ad57600080fd5b91908080601f016020809104026020016040519081016040528093929190818152602001838380828437600081840152601f19601f8201169050808301925050505050505091929192905050506103ed565b604051808215151515815260200191505060405180910390f35b6102696004803603604081101561012f57600080fd5b810190808035906020019064010000000081111561014c57600080fd5b82018360208201111561015e57600080fd5b8035906020019184600183028401116401000000008311171561018057600080fd5b91908080601f016020809104026020016040519081016040528093929190818152602001838380828437600081840152601f19601f820116905080830192505050505050509192919290803590602001906401000000008111156101e357600080fd5b8201836020820111156101f557600080fd5b8035906020019184600183028401116401000000008311171561021757600080fd5b91908080601f016020809104026020016040519081016040528093929190818152602001838380828437600081840152601f19601f82011690508083019250505050505050919291929050505061046f565b604051808215151515815260200191505060405180910390f35b6103d36004803603604081101561029957600080fd5b81019080803590602001906401000000008111156102b657600080fd5b8201836020820111156102c857600080fd5b803590602001918460018302840111640100000000831117156102ea57600080fd5b91908080601f016020809104026020016040519081016040528093929190818152602001838380828437600081840152601f19601f8201169050808301925050505050505091929192908035906020019064010000000081111561034d57600080fd5b82018360208201111561035f57600080fd5b8035906020019184600183028401116401000000008311171561038157600080fd5b91908080601f016020809104026020016040519081016040528093929190818152602001838380828437600081840152601f19601f82011690508083019250505050505050919291929050505061067b565b604051808215151515815260200191505060405180910390f35b600080826040518082805190602001908083835b602083106104245780518252602082019150602081019050602083039250610401565b6001836020036101000a038019825116818451168082178552505050505050905001915050908152602001604051809103902060020160009054906101000a900460ff169050919050565b600061047a836103ed565b156104885760009050610675565b826000846040518082805190602001908083835b602083106104bf578051825260208201915060208101905060208303925061049c565b6001836020036101000a03801982511681845116808217855250505050505090500191505090815260200160405180910390206000019080519060200190610508929190610776565b50816040516020018082805190602001908083835b60208310610540578051825260208201915060208101905060208303925061051d565b6001836020036101000a038019825116818451168082178552505050505050905001915050604051602081830303815290604052805190602001206000846040518082805190602001908083835b602083106105b1578051825260208201915060208101905060208303925061058e565b6001836020036101000a03801982511681845116808217855250505050505090500191505090815260200160405180910390206001018190555060016000846040518082805190602001908083835b602083106106235780518252602082019150602081019050602083039250610600565b6001836020036101000a038019825116818451168082178552505050505050905001915050908152602001604051809103902060020160006101000a81548160ff021916908315150217905550600190505b92915050565b6000816040516020018082805190602001908083835b602083106106b45780518252602082019150602081019050602083039250610691565b6001836020036101000a038019825116818451168082178552505050505050905001915050604051602081830303815290604052805190602001206000846040518082805190602001908083835b602083106107255780518252602082019150602081019050602083039250610702565b6001836020036101000a038019825116818451168082178552505050505050905001915050908152602001604051809103902060010154141561076b5760019050610770565b600090505b92915050565b828054600181600116156101000203166002900490600052602060002090601f016020900481019282601f106107b757805160ff19168380011785556107e5565b828001600101855582156107e5579182015b828111156107e45782518255916020019190600101906107c9565b5b5090506107f291906107f6565b5090565b61081891905b808211156108145760008160009055506001016107fc565b5090565b9056fea265627a7a72315820efa043339ff3e44415a038e9a0186d784c276afc57bc59ba4ba15220c4c80e2a64736f6c63430005100032",
  "source": "pragma solidity >=0.4.21 <0.7.0;\r\n\r\n// Facilitates registration of new users with an email and password.\r\n// Stores the password as a secured byte hash.\r\n// Allows for login verification by providing an email and password to check\r\n// against the stored user database on the blockchain.\r\n\r\ncontract Users\r\n{\r\n    struct User {\r\n        string email;\r\n        bytes32 password;\r\n        bool registered;\r\n        // Add any data here about the voter that we also need\r\n    }\r\n\r\n    mapping(string => User) private users;\r\n\r\n    function register(string memory email, string memory password) public returns (bool) {\r\n        // Check if user is already registered\r\n        if (exists(email)) {\r\n            return false;\r\n        }\r\n\r\n        // Register user data\r\n        users[email].email = email;\r\n        users[email].password = keccak256(abi.encodePacked(password)); // Store hashed for security and later comparisons.\r\n        users[email].registered = true;\r\n\r\n        return true; // Registration success\r\n    }\r\n\r\n    function login(string memory email, string memory password) public view returns (bool) {\r\n        if (users[email].password == keccak256(abi.encodePacked(password))) {\r\n            return true;\r\n        } else {\r\n            return false;\r\n        }\r\n    }\r\n\r\n    function exists(string memory email) public view returns (bool) {\r\n        return users[email].registered;\r\n    }\r\n}",
  "sourcePath": "C:\\Users\\Danielle\\Documents\\CS415\\cs458\\CS458-Project\\contracts\\Users.sol",
  "compiler": {
    "name": "solc",
    "version": "0.5.16+commit.9c3226ce.Emscripten.clang"
  },
  "schemaVersion": "3.4.6",
  "updatedAt": "2022-04-29T15:11:57.568Z",
  "devdoc": {
    "methods": {}
  },
  "userdoc": {
    "methods": {}
  }
}