{
  "contractName": "VoteTracker",
  "abi": [
    {
      "anonymous": false,
      "inputs": [
        {
          "indexed": false,
          "internalType": "string",
          "name": "email",
          "type": "string"
        },
        {
          "indexed": false,
          "internalType": "string",
          "name": "birthdate",
          "type": "string"
        },
        {
          "indexed": false,
          "internalType": "string",
          "name": "gender",
          "type": "string"
        },
        {
          "indexed": false,
          "internalType": "string",
          "name": "affiliation",
          "type": "string"
        },
        {
          "indexed": false,
          "internalType": "string",
          "name": "state",
          "type": "string"
        }
      ],
      "name": "IdentityCreate",
      "type": "event"
    },
    {
      "anonymous": false,
      "inputs": [
        {
          "indexed": false,
          "internalType": "string",
          "name": "name",
          "type": "string"
        },
        {
          "indexed": false,
          "internalType": "uint256",
          "name": "voteCount",
          "type": "uint256"
        }
      ],
      "name": "PartyCreate",
      "type": "event"
    },
    {
      "anonymous": false,
      "inputs": [
        {
          "indexed": false,
          "internalType": "uint256",
          "name": "voteCount",
          "type": "uint256"
        },
        {
          "indexed": false,
          "internalType": "uint256",
          "name": "time",
          "type": "uint256"
        },
        {
          "indexed": false,
          "internalType": "string",
          "name": "partyName",
          "type": "string"
        },
        {
          "indexed": false,
          "internalType": "string",
          "name": "adhaar",
          "type": "string"
        },
        {
          "indexed": false,
          "internalType": "string",
          "name": "constituency",
          "type": "string"
        }
      ],
      "name": "VoteGenerate",
      "type": "event"
    },
    {
      "constant": true,
      "inputs": [
        {
          "internalType": "uint256",
          "name": "",
          "type": "uint256"
        }
      ],
      "name": "IdentityStore",
      "outputs": [
        {
          "internalType": "string",
          "name": "email",
          "type": "string"
        },
        {
          "internalType": "string",
          "name": "birthdate",
          "type": "string"
        },
        {
          "internalType": "string",
          "name": "gender",
          "type": "string"
        },
        {
          "internalType": "string",
          "name": "affiliation",
          "type": "string"
        },
        {
          "internalType": "string",
          "name": "state",
          "type": "string"
        }
      ],
      "payable": false,
      "stateMutability": "view",
      "type": "function"
    },
    {
      "constant": true,
      "inputs": [
        {
          "internalType": "uint256",
          "name": "",
          "type": "uint256"
        }
      ],
      "name": "PartyStore",
      "outputs": [
        {
          "internalType": "string",
          "name": "name",
          "type": "string"
        },
        {
          "internalType": "uint256",
          "name": "voteCount",
          "type": "uint256"
        }
      ],
      "payable": false,
      "stateMutability": "view",
      "type": "function"
    },
    {
      "constant": true,
      "inputs": [
        {
          "internalType": "uint256",
          "name": "",
          "type": "uint256"
        }
      ],
      "name": "VoteStore",
      "outputs": [
        {
          "internalType": "uint256",
          "name": "id",
          "type": "uint256"
        },
        {
          "internalType": "uint256",
          "name": "time",
          "type": "uint256"
        },
        {
          "internalType": "string",
          "name": "PartyName",
          "type": "string"
        },
        {
          "internalType": "string",
          "name": "adhaar",
          "type": "string"
        },
        {
          "internalType": "string",
          "name": "constituency",
          "type": "string"
        }
      ],
      "payable": false,
      "stateMutability": "view",
      "type": "function"
    },
    {
      "constant": true,
      "inputs": [],
      "name": "identityCount",
      "outputs": [
        {
          "internalType": "uint256",
          "name": "",
          "type": "uint256"
        }
      ],
      "payable": false,
      "stateMutability": "view",
      "type": "function"
    },
    {
      "constant": true,
      "inputs": [],
      "name": "partyCount",
      "outputs": [
        {
          "internalType": "uint256",
          "name": "",
          "type": "uint256"
        }
      ],
      "payable": false,
      "stateMutability": "view",
      "type": "function"
    },
    {
      "constant": true,
      "inputs": [],
      "name": "secret",
      "outputs": [
        {
          "internalType": "string",
          "name": "",
          "type": "string"
        }
      ],
      "payable": false,
      "stateMutability": "view",
      "type": "function"
    },
    {
      "constant": true,
      "inputs": [],
      "name": "voterCount",
      "outputs": [
        {
          "internalType": "uint256",
          "name": "",
          "type": "uint256"
        }
      ],
      "payable": false,
      "stateMutability": "view",
      "type": "function"
    },
    {
      "constant": false,
      "inputs": [
        {
          "internalType": "string",
          "name": "_email",
          "type": "string"
        },
        {
          "internalType": "string",
          "name": "_birthdate",
          "type": "string"
        },
        {
          "internalType": "string",
          "name": "_gender",
          "type": "string"
        },
        {
          "internalType": "string",
          "name": "_affiliation",
          "type": "string"
        },
        {
          "internalType": "string",
          "name": "_state",
          "type": "string"
        }
      ],
      "name": "registerUser",
      "outputs": [
        {
          "internalType": "uint256",
          "name": "",
          "type": "uint256"
        }
      ],
      "payable": false,
      "stateMutability": "nonpayable",
      "type": "function"
    },
    {
      "constant": false,
      "inputs": [
        {
          "internalType": "string",
          "name": "_email",
          "type": "string"
        },
        {
          "internalType": "string",
          "name": "_birthdate",
          "type": "string"
        },
        {
          "internalType": "string",
          "name": "_gender",
          "type": "string"
        },
        {
          "internalType": "string",
          "name": "_affiliation",
          "type": "string"
        },
        {
          "internalType": "string",
          "name": "_state",
          "type": "string"
        }
      ],
      "name": "verifyUser",
      "outputs": [
        {
          "internalType": "bool",
          "name": "",
          "type": "bool"
        }
      ],
      "payable": false,
      "stateMutability": "nonpayable",
      "type": "function"
    },
    {
      "constant": false,
      "inputs": [
        {
          "internalType": "string",
          "name": "_partyName",
          "type": "string"
        },
        {
          "internalType": "string",
          "name": "_adhaar",
          "type": "string"
        },
        {
          "internalType": "string",
          "name": "_constituency",
          "type": "string"
        }
      ],
      "name": "generateVote",
      "outputs": [
        {
          "internalType": "uint256",
          "name": "",
          "type": "uint256"
        }
      ],
      "payable": false,
      "stateMutability": "nonpayable",
      "type": "function"
    },
    {
      "constant": false,
      "inputs": [
        {
          "internalType": "string",
          "name": "_name",
          "type": "string"
        }
      ],
      "name": "createParty",
      "outputs": [
        {
          "internalType": "uint256",
          "name": "",
          "type": "uint256"
        }
      ],
      "payable": false,
      "stateMutability": "nonpayable",
      "type": "function"
    },
    {
      "constant": false,
      "inputs": [],
      "name": "getAdminKey",
      "outputs": [
        {
          "internalType": "string",
          "name": "",
          "type": "string"
        }
      ],
      "payable": false,
      "stateMutability": "nonpayable",
      "type": "function"
    },
    {
      "constant": false,
      "inputs": [],
      "name": "getPartyCount",
      "outputs": [
        {
          "internalType": "uint256",
          "name": "",
          "type": "uint256"
        }
      ],
      "payable": false,
      "stateMutability": "nonpayable",
      "type": "function"
    },
    {
      "constant": false,
      "inputs": [
        {
          "internalType": "uint256",
          "name": "_id",
          "type": "uint256"
        }
      ],
      "name": "getNames",
      "outputs": [
        {
          "internalType": "uint256",
          "name": "",
          "type": "uint256"
        },
        {
          "internalType": "string",
          "name": "",
          "type": "string"
        }
      ],
      "payable": false,
      "stateMutability": "nonpayable",
      "type": "function"
    }
  ],
  "bytecode": "0x60806040526040518060400160405280600681526020017f3132333435360000000000000000000000000000000000000000000000000000815250600090805190602001906200005192919062000075565b506000600255600060045560006006553480156200006e57600080fd5b5062000124565b828054600181600116156101000203166002900490600052602060002090601f016020900481019282601f10620000b857805160ff1916838001178555620000e9565b82800160010185558215620000e9579182015b82811115620000e8578251825591602001919060010190620000cb565b5b509050620000f89190620000fc565b5090565b6200012191905b808211156200011d57600081600090555060010162000103565b5090565b90565b611f7380620001346000396000f3fe608060405234801561001057600080fd5b50600436106100e95760003560e01c80635718e17b1161008c578063ac9f0a4011610066578063ac9f0a4014610279578063b45fd782146102a9578063b8df43ae146102da578063d1efd30d1461030e576100e9565b80635718e17b1461020c57806360b960e51461023d5780639eb8e7251461025b576100e9565b8063339d74a3116100c8578063339d74a31461017e57806338678ba5146101b257806342169e48146101d05780634834088b146101ee576100e9565b80624094db146100ee57806310863c0d1461011e57806328eb4a9c1461014e575b600080fd5b610108600480360361010391908101906117bc565b61032c565b6040516101159190611ce3565b60405180910390f35b61013860048036036101339190810190611894565b6103e6565b6040516101459190611b38565b60405180910390f35b610168600480360361016391908101906117fd565b6106e8565b6040516101759190611ce3565b60405180910390f35b61019860048036036101939190810190611983565b61085c565b6040516101a9959493929190611d96565b60405180910390f35b6101ba610a5a565b6040516101c79190611ce3565b60405180910390f35b6101d8610a60565b6040516101e59190611ce3565b60405180910390f35b6101f6610a66565b6040516102039190611b75565b60405180910390f35b61022660048036036102219190810190611983565b610b08565b604051610234929190611cfe565b60405180910390f35b610245610bed565b6040516102529190611ce3565b60405180910390f35b610263610bf7565b6040516102709190611ce3565b60405180910390f35b610293600480360361028e9190810190611894565b610bfd565b6040516102a09190611ce3565b60405180910390f35b6102c360048036036102be9190810190611983565b610d3b565b6040516102d1929190611cb3565b60405180910390f35b6102f460048036036102ef9190810190611983565b610df7565b604051610305959493929190611c3d565b60405180910390f35b610316611125565b6040516103239190611b53565b60405180910390f35b6000610337826111c3565b61034057600080fd5b6004600081548092919060010191905055506040518060400160405280838152602001600081525060036000600454815260200190815260200160002060008201518160000190805190602001906103999291906116ae565b50602082015181600101559050507f2b0eeee174d41d45c8b5c15a69654052c8d29819fe75dcf785bb428e343f06558260006040516103d9929190611b97565b60405180910390a1919050565b60006103f1866112ff565b156103fb57600080fd5b6000600190505b60065481116106d9576060600560008381526020019081526020016000206000018054600181600116156101000203166002900480601f0160208091040260200160405190810160405280929190818152602001828054600181600116156101000203166002900480156104b75780601f1061048c576101008083540402835291602001916104b7565b820191906000526020600020905b81548152906001019060200180831161049a57829003601f168201915b50505050509050876040516020016104cf9190611b0a565b60405160208183030381529060405280519060200120816040516020016104f69190611b0a565b6040516020818303038152906040528051906020012014156106cb57866040516020016105239190611b0a565b604051602081830303815290604052805190602001206005600084815260200190815260200160002060010160405160200161055f9190611b21565b604051602081830303815290604052805190602001201480156105e257508560405160200161058e9190611b0a565b60405160208183030381529060405280519060200120600560008481526020019081526020016000206002016040516020016105ca9190611b21565b60405160208183030381529060405280519060200120145b801561064e5750846040516020016105fa9190611b0a565b60405160208183030381529060405280519060200120600560008481526020019081526020016000206003016040516020016106369190611b21565b60405160208183030381529060405280519060200120145b80156106ba5750836040516020016106669190611b0a565b60405160208183030381529060405280519060200120600560008481526020019081526020016000206004016040516020016106a29190611b21565b60405160208183030381529060405280519060200120145b156106ca576001925050506106df565b5b508080600101915050610402565b50600090505b95945050505050565b60006106f3836112ff565b156106fd57600080fd5b6107068361143b565b61070f57600080fd5b610718846111c3565b1561072257600080fd5b6002600081548092919060010191905055506040518060a00160405280600254815260200142815260200185815260200184815260200183815250600160006002548152602001908152602001600020600082015181600001556020820151816001015560408201518160020190805190602001906107a29291906116ae565b5060608201518160030190805190602001906107bf9291906116ae565b5060808201518160040190805190602001906107dc9291906116ae565b5090505060006107eb85611577565b905060036000828152602001908152602001600020600101600081548092919060010191905055507f13c5e646d5829eacc1885d8609b921c6e6f30dcd63a0a7610a2ed75e6c86fae26002544287878760405161084c959493929190611d2e565b60405180910390a1509392505050565b6001602052806000526040600020600091509050806000015490806001015490806002018054600181600116156101000203166002900480601f0160208091040260200160405190810160405280929190818152602001828054600181600116156101000203166002900480156109145780601f106108e957610100808354040283529160200191610914565b820191906000526020600020905b8154815290600101906020018083116108f757829003601f168201915b505050505090806003018054600181600116156101000203166002900480601f0160208091040260200160405190810160405280929190818152602001828054600181600116156101000203166002900480156109b25780601f10610987576101008083540402835291602001916109b2565b820191906000526020600020905b81548152906001019060200180831161099557829003601f168201915b505050505090806004018054600181600116156101000203166002900480601f016020809104026020016040519081016040528092919081815260200182805460018160011615610100020316600290048015610a505780601f10610a2557610100808354040283529160200191610a50565b820191906000526020600020905b815481529060010190602001808311610a3357829003601f168201915b5050505050905085565b60065481565b60025481565b606060008054600181600116156101000203166002900480601f016020809104026020016040519081016040528092919081815260200182805460018160011615610100020316600290048015610afe5780601f10610ad357610100808354040283529160200191610afe565b820191906000526020600020905b815481529060010190602001808311610ae157829003601f168201915b5050505050905090565b60006060600454831115610b1b57600080fd5b600360008481526020019081526020016000206001015460036000858152602001908152602001600020600001808054600181600116156101000203166002900480601f016020809104026020016040519081016040528092919081815260200182805460018160011615610100020316600290048015610bdd5780601f10610bb257610100808354040283529160200191610bdd565b820191906000526020600020905b815481529060010190602001808311610bc057829003601f168201915b5050505050905091509150915091565b6000600454905090565b60045481565b6000610c08866112ff565b610c1157600080fd5b6006600081548092919060010191905055506040518060a00160405280878152602001868152602001858152602001848152602001838152506005600060065481526020019081526020016000206000820151816000019080519060200190610c7b9291906116ae565b506020820151816001019080519060200190610c989291906116ae565b506040820151816002019080519060200190610cb59291906116ae565b506060820151816003019080519060200190610cd29291906116ae565b506080820151816004019080519060200190610cef9291906116ae565b509050507ff8f4f7eba7e55889568fd514067069b1039580eedd66b3c98c6b4c596c5075bc8686868686604051610d2a959493929190611bc7565b60405180910390a195945050505050565b6003602052806000526040600020600091509050806000018054600181600116156101000203166002900480601f016020809104026020016040519081016040528092919081815260200182805460018160011615610100020316600290048015610de75780601f10610dbc57610100808354040283529160200191610de7565b820191906000526020600020905b815481529060010190602001808311610dca57829003601f168201915b5050505050908060010154905082565b6005602052806000526040600020600091509050806000018054600181600116156101000203166002900480601f016020809104026020016040519081016040528092919081815260200182805460018160011615610100020316600290048015610ea35780601f10610e7857610100808354040283529160200191610ea3565b820191906000526020600020905b815481529060010190602001808311610e8657829003601f168201915b505050505090806001018054600181600116156101000203166002900480601f016020809104026020016040519081016040528092919081815260200182805460018160011615610100020316600290048015610f415780601f10610f1657610100808354040283529160200191610f41565b820191906000526020600020905b815481529060010190602001808311610f2457829003601f168201915b505050505090806002018054600181600116156101000203166002900480601f016020809104026020016040519081016040528092919081815260200182805460018160011615610100020316600290048015610fdf5780601f10610fb457610100808354040283529160200191610fdf565b820191906000526020600020905b815481529060010190602001808311610fc257829003601f168201915b505050505090806003018054600181600116156101000203166002900480601f01602080910402602001604051908101604052809291908181526020018280546001816001161561010002031660029004801561107d5780601f106110525761010080835404028352916020019161107d565b820191906000526020600020905b81548152906001019060200180831161106057829003601f168201915b505050505090806004018054600181600116156101000203166002900480601f01602080910402602001604051908101604052809291908181526020018280546001816001161561010002031660029004801561111b5780601f106110f05761010080835404028352916020019161111b565b820191906000526020600020905b8154815290600101906020018083116110fe57829003601f168201915b5050505050905085565b60008054600181600116156101000203166002900480601f0160208091040260200160405190810160405280929190818152602001828054600181600116156101000203166002900480156111bb5780601f10611190576101008083540402835291602001916111bb565b820191906000526020600020905b81548152906001019060200180831161119e57829003601f168201915b505050505081565b600080600190505b60045481116112f4576060600360008381526020019081526020016000206000018054600181600116156101000203166002900480601f0160208091040260200160405190810160405280929190818152602001828054600181600116156101000203166002900480156112805780601f1061125557610100808354040283529160200191611280565b820191906000526020600020905b81548152906001019060200180831161126357829003601f168201915b50505050509050836040516020016112989190611b0a565b60405160208183030381529060405280519060200120816040516020016112bf9190611b0a565b6040516020818303038152906040528051906020012014156112e6576000925050506112fa565b5080806001019150506111cb565b50600190505b919050565b600080600190505b6006548111611430576060600560008381526020019081526020016000206000018054600181600116156101000203166002900480601f0160208091040260200160405190810160405280929190818152602001828054600181600116156101000203166002900480156113bc5780601f10611391576101008083540402835291602001916113bc565b820191906000526020600020905b81548152906001019060200180831161139f57829003601f168201915b50505050509050836040516020016113d49190611b0a565b60405160208183030381529060405280519060200120816040516020016113fb9190611b0a565b60405160208183030381529060405280519060200120141561142257600092505050611436565b508080600101915050611307565b50600190505b919050565b600080600190505b600254811161156c576060600160008381526020019081526020016000206003018054600181600116156101000203166002900480601f0160208091040260200160405190810160405280929190818152602001828054600181600116156101000203166002900480156114f85780601f106114cd576101008083540402835291602001916114f8565b820191906000526020600020905b8154815290600101906020018083116114db57829003601f168201915b50505050509050836040516020016115109190611b0a565b60405160208183030381529060405280519060200120816040516020016115379190611b0a565b60405160208183030381529060405280519060200120141561155e57600092505050611572565b508080600101915050611443565b50600190505b919050565b600080600190505b60045481116116a7576060600360008381526020019081526020016000206000018054600181600116156101000203166002900480601f0160208091040260200160405190810160405280929190818152602001828054600181600116156101000203166002900480156116345780601f1061160957610100808354040283529160200191611634565b820191906000526020600020905b81548152906001019060200180831161161757829003601f168201915b505050505090508360405160200161164c9190611b0a565b60405160208183030381529060405280519060200120816040516020016116739190611b0a565b6040516020818303038152906040528051906020012014156116995781925050506116a9565b50808060010191505061157f565b505b919050565b828054600181600116156101000203166002900490600052602060002090601f016020900481019282601f106116ef57805160ff191683800117855561171d565b8280016001018555821561171d579182015b8281111561171c578251825591602001919060010190611701565b5b50905061172a919061172e565b5090565b61175091905b8082111561174c576000816000905550600101611734565b5090565b90565b600082601f83011261176457600080fd5b813561177761177282611e2b565b611dfe565b9150808252602083016020830185838301111561179357600080fd5b61179e838284611ec6565b50505092915050565b6000813590506117b681611f19565b92915050565b6000602082840312156117ce57600080fd5b600082013567ffffffffffffffff8111156117e857600080fd5b6117f484828501611753565b91505092915050565b60008060006060848603121561181257600080fd5b600084013567ffffffffffffffff81111561182c57600080fd5b61183886828701611753565b935050602084013567ffffffffffffffff81111561185557600080fd5b61186186828701611753565b925050604084013567ffffffffffffffff81111561187e57600080fd5b61188a86828701611753565b9150509250925092565b600080600080600060a086880312156118ac57600080fd5b600086013567ffffffffffffffff8111156118c657600080fd5b6118d288828901611753565b955050602086013567ffffffffffffffff8111156118ef57600080fd5b6118fb88828901611753565b945050604086013567ffffffffffffffff81111561191857600080fd5b61192488828901611753565b935050606086013567ffffffffffffffff81111561194157600080fd5b61194d88828901611753565b925050608086013567ffffffffffffffff81111561196a57600080fd5b61197688828901611753565b9150509295509295909350565b60006020828403121561199557600080fd5b60006119a3848285016117a7565b91505092915050565b6119b581611e9e565b82525050565b6119c481611eb4565b82525050565b60006119d582611e77565b6119df8185611e82565b93506119ef818560208601611ed5565b6119f881611f08565b840191505092915050565b6000611a0e82611e77565b611a188185611e93565b9350611a28818560208601611ed5565b80840191505092915050565b6000611a3f82611e6c565b611a498185611e82565b9350611a59818560208601611ed5565b611a6281611f08565b840191505092915050565b600081546001811660008114611a8a5760018114611aaf57611af3565b607f6002830416611a9b8187611e93565b955060ff1983168652808601935050611af3565b60028204611abd8187611e93565b9550611ac885611e57565b60005b82811015611aea57815481890152600182019150602081019050611acb565b82880195505050505b505092915050565b611b0481611eaa565b82525050565b6000611b168284611a03565b915081905092915050565b6000611b2d8284611a6d565b915081905092915050565b6000602082019050611b4d60008301846119ac565b92915050565b60006020820190508181036000830152611b6d8184611a34565b905092915050565b60006020820190508181036000830152611b8f81846119ca565b905092915050565b60006040820190508181036000830152611bb181856119ca565b9050611bc060208301846119bb565b9392505050565b600060a0820190508181036000830152611be181886119ca565b90508181036020830152611bf581876119ca565b90508181036040830152611c0981866119ca565b90508181036060830152611c1d81856119ca565b90508181036080830152611c3181846119ca565b90509695505050505050565b600060a0820190508181036000830152611c578188611a34565b90508181036020830152611c6b8187611a34565b90508181036040830152611c7f8186611a34565b90508181036060830152611c938185611a34565b90508181036080830152611ca78184611a34565b90509695505050505050565b60006040820190508181036000830152611ccd8185611a34565b9050611cdc6020830184611afb565b9392505050565b6000602082019050611cf86000830184611afb565b92915050565b6000604082019050611d136000830185611afb565b8181036020830152611d2581846119ca565b90509392505050565b600060a082019050611d436000830188611afb565b611d506020830187611afb565b8181036040830152611d6281866119ca565b90508181036060830152611d7681856119ca565b90508181036080830152611d8a81846119ca565b90509695505050505050565b600060a082019050611dab6000830188611afb565b611db86020830187611afb565b8181036040830152611dca8186611a34565b90508181036060830152611dde8185611a34565b90508181036080830152611df28184611a34565b90509695505050505050565b6000604051905081810181811067ffffffffffffffff82111715611e2157600080fd5b8060405250919050565b600067ffffffffffffffff821115611e4257600080fd5b601f19601f8301169050602081019050919050565b60008190508160005260206000209050919050565b600081519050919050565b600081519050919050565b600082825260208201905092915050565b600081905092915050565b60008115159050919050565b6000819050919050565b6000611ebf82611eaa565b9050919050565b82818337600083830152505050565b60005b83811015611ef3578082015181840152602081019050611ed8565b83811115611f02576000848401525b50505050565b6000601f19601f8301169050919050565b611f2281611eaa565b8114611f2d57600080fd5b5056fea365627a7a72315820911665dbbd536c7c3cca5f844b4ceb9f4cb58a89c7780d3ce4235005613340636c6578706572696d656e74616cf564736f6c63430005100040",
  "source": "pragma solidity >=0.4.21 <0.7.0;\r\npragma experimental ABIEncoderV2;\r\nimport \"./VoteLibrary.sol\";\r\n\r\ncontract VoteTracker\r\n{\r\n    string public secret = \"123456\";\r\n\r\n    mapping(uint => VoteLibrary.Vote) public VoteStore;\r\n    uint256 public voterCount = 0;\r\n\r\n    mapping(uint => VoteLibrary.Party) public PartyStore;\r\n    uint256 public partyCount = 0;\r\n\r\n    mapping(uint => VoteLibrary.Identity) public IdentityStore;\r\n    uint256 public identityCount = 0;\r\n\r\n    function registerUser(string memory _email, string memory _birthdate, string memory _gender, string memory _affiliation, string memory _state) public returns(uint256)\r\n    {\r\n        require(checkIfIdCanExist(_email));\r\n        identityCount++;\r\n        IdentityStore[identityCount] = VoteLibrary.Identity(_email, _birthdate, _gender, _affiliation, _state);\r\n        emit IdentityCreate(_email, _birthdate, _gender, _affiliation, _state);\r\n    }\r\n\r\n    function verifyUser(string memory _email, string memory _birthdate, string memory _gender, string memory _affiliation, string memory _state) public returns(bool)\r\n    {\r\n        require(!checkIfIdCanExist(_email));\r\n\r\n        for(uint i=1;i<=identityCount;i++)\r\n        {\r\n            string memory email = IdentityStore[i].email;\r\n            if(keccak256(abi.encodePacked((email))) == keccak256(abi.encodePacked((_email)))){\r\n                if(keccak256(abi.encodePacked((IdentityStore[i].birthdate))) == keccak256(abi.encodePacked((_birthdate))) &&\r\n                   keccak256(abi.encodePacked((IdentityStore[i].gender))) == keccak256(abi.encodePacked((_gender))) &&\r\n                   keccak256(abi.encodePacked((IdentityStore[i].affiliation))) == keccak256(abi.encodePacked((_affiliation))) &&\r\n                   keccak256(abi.encodePacked((IdentityStore[i].state))) == keccak256(abi.encodePacked((_state)))){\r\n                       return true;\r\n                   }\r\n            }\r\n        }\r\n        return false;\r\n    }\r\n\r\n    function generateVote(string memory _partyName, string memory _adhaar, string memory _constituency) public returns(uint256)\r\n    {\r\n        require(!checkIfIdCanExist(_adhaar));\r\n        require(checkIfCanVote(_adhaar));\r\n        require(!checkIfCanExist(_partyName));\r\n        voterCount++;\r\n        VoteStore[voterCount] = VoteLibrary.Vote(voterCount, block.timestamp, _partyName, _adhaar, _constituency);\r\n        uint partyIndex = getParty(_partyName);\r\n        PartyStore[partyIndex].voteCount++;\r\n        emit VoteGenerate(voterCount, block.timestamp, _partyName, _adhaar, _constituency);\r\n    }\r\n    \r\n    function createParty(string memory _name) public returns(uint256)\r\n    {\r\n        require(checkIfCanExist(_name));\r\n        partyCount++;\r\n        PartyStore[partyCount] = VoteLibrary.Party(_name, 0);\r\n        emit PartyCreate(_name, 0);\r\n    }\r\n\r\n    function getAdminKey() public returns(string memory)\r\n    {\r\n        return secret;\r\n    }\r\n\r\n    function checkIfCanExist(string memory _namer) private returns(bool)\r\n    {\r\n        for(uint i=1;i<=partyCount;i++)\r\n        {\r\n            string memory partyNamed = PartyStore[i].name;\r\n            if(keccak256(abi.encodePacked((partyNamed))) == keccak256(abi.encodePacked((_namer))))\r\n            {\r\n                return false;\r\n            }\r\n        }\r\n        return true;\r\n    }\r\n\r\n    function checkIfIdCanExist(string memory _namered) private returns(bool)\r\n    {\r\n        for(uint i=1;i<=identityCount;i++)\r\n        {\r\n            string memory idNamed = IdentityStore[i].email;\r\n            if(keccak256(abi.encodePacked((idNamed))) == keccak256(abi.encodePacked((_namered))))\r\n            {\r\n                return false;\r\n            }\r\n        }\r\n        return true;\r\n    }\r\n\r\n    function checkIfCanVote(string memory _adhaarer) private returns(bool)\r\n    {\r\n        for(uint i=1;i<=voterCount;i++)\r\n        {\r\n            string memory voteNamed = VoteStore[i].adhaar;\r\n            if(keccak256(abi.encodePacked((voteNamed))) == keccak256(abi.encodePacked((_adhaarer))))\r\n            {\r\n                return false;\r\n            }\r\n        }\r\n        return true;\r\n    }\r\n\r\n    function getParty(string memory _partyNamer) private returns (uint)\r\n    {\r\n        for(uint i=1;i<=partyCount;i++)\r\n        {\r\n            string memory partyNamed = PartyStore[i].name;\r\n            if(keccak256(abi.encodePacked((partyNamed))) == keccak256(abi.encodePacked((_partyNamer))))\r\n            {\r\n                return i;\r\n            }\r\n        }\r\n    }\r\n\r\n    function getPartyCount() public returns (uint)\r\n    {\r\n        return partyCount;\r\n    }\r\n\r\n    function getNames(uint _id) public returns(uint,string memory)\r\n    {\r\n        require(_id<=partyCount);\r\n        return (PartyStore[_id].voteCount,PartyStore[_id].name);\r\n    }\r\n\r\n    event IdentityCreate(string email, string birthdate, string gender, string affiliation, string state);\r\n    event PartyCreate(string name, uint voteCount);\r\n    event VoteGenerate(uint voteCount, uint time, string partyName, string adhaar, string constituency);\r\n}",
  "sourcePath": "C:\\Users\\Danielle\\Documents\\CS415\\cs458\\CS458-Project\\contracts\\VoteTracker.sol",
  "compiler": {
    "name": "solc",
    "version": "0.5.16+commit.9c3226ce.Emscripten.clang"
  },
  "schemaVersion": "3.4.6",
  "updatedAt": "2022-04-27T13:51:14.938Z",
  "networkType": "ethereum",
  "devdoc": {
    "methods": {}
  },
  "userdoc": {
    "methods": {}
  }
}