{
  "contractName": "VoteTracker",
  "abi": [
    {
      "anonymous": false,
      "inputs": [
        {
          "indexed": false,
          "internalType": "string",
          "name": "email",
          "type": "string"
        },
        {
          "indexed": false,
          "internalType": "string",
          "name": "birthdate",
          "type": "string"
        },
        {
          "indexed": false,
          "internalType": "string",
          "name": "gender",
          "type": "string"
        },
        {
          "indexed": false,
          "internalType": "string",
          "name": "affiliation",
          "type": "string"
        },
        {
          "indexed": false,
          "internalType": "string",
          "name": "state",
          "type": "string"
        }
      ],
      "name": "IdentityCreate",
      "type": "event"
    },
    {
      "anonymous": false,
      "inputs": [
        {
          "indexed": false,
          "internalType": "string",
          "name": "name",
          "type": "string"
        },
        {
          "indexed": false,
          "internalType": "uint256",
          "name": "voteCount",
          "type": "uint256"
        }
      ],
      "name": "PartyCreate",
      "type": "event"
    },
    {
      "anonymous": false,
      "inputs": [
        {
          "indexed": false,
          "internalType": "uint256",
          "name": "voteCount",
          "type": "uint256"
        },
        {
          "indexed": false,
          "internalType": "uint256",
          "name": "time",
          "type": "uint256"
        },
        {
          "indexed": false,
          "internalType": "string",
          "name": "partyName",
          "type": "string"
        },
        {
          "indexed": false,
          "internalType": "string",
          "name": "adhaar",
          "type": "string"
        },
        {
          "indexed": false,
          "internalType": "string",
          "name": "constituency",
          "type": "string"
        }
      ],
      "name": "VoteGenerate",
      "type": "event"
    },
    {
      "constant": true,
      "inputs": [
        {
          "internalType": "uint256",
          "name": "",
          "type": "uint256"
        }
      ],
      "name": "IdentityStore",
      "outputs": [
        {
          "internalType": "string",
          "name": "email",
          "type": "string"
        },
        {
          "internalType": "string",
          "name": "birthdate",
          "type": "string"
        },
        {
          "internalType": "string",
          "name": "gender",
          "type": "string"
        },
        {
          "internalType": "string",
          "name": "affiliation",
          "type": "string"
        },
        {
          "internalType": "string",
          "name": "state",
          "type": "string"
        }
      ],
      "payable": false,
      "stateMutability": "view",
      "type": "function"
    },
    {
      "constant": true,
      "inputs": [
        {
          "internalType": "uint256",
          "name": "",
          "type": "uint256"
        }
      ],
      "name": "PartyStore",
      "outputs": [
        {
          "internalType": "string",
          "name": "name",
          "type": "string"
        },
        {
          "internalType": "uint256",
          "name": "voteCount",
          "type": "uint256"
        }
      ],
      "payable": false,
      "stateMutability": "view",
      "type": "function"
    },
    {
      "constant": true,
      "inputs": [
        {
          "internalType": "uint256",
          "name": "",
          "type": "uint256"
        }
      ],
      "name": "VoteStore",
      "outputs": [
        {
          "internalType": "uint256",
          "name": "id",
          "type": "uint256"
        },
        {
          "internalType": "uint256",
          "name": "time",
          "type": "uint256"
        },
        {
          "internalType": "string",
          "name": "PartyName",
          "type": "string"
        },
        {
          "internalType": "string",
          "name": "adhaar",
          "type": "string"
        },
        {
          "internalType": "string",
          "name": "constituency",
          "type": "string"
        }
      ],
      "payable": false,
      "stateMutability": "view",
      "type": "function"
    },
    {
      "constant": true,
      "inputs": [],
      "name": "identityCount",
      "outputs": [
        {
          "internalType": "uint256",
          "name": "",
          "type": "uint256"
        }
      ],
      "payable": false,
      "stateMutability": "view",
      "type": "function"
    },
    {
      "constant": true,
      "inputs": [],
      "name": "partyCount",
      "outputs": [
        {
          "internalType": "uint256",
          "name": "",
          "type": "uint256"
        }
      ],
      "payable": false,
      "stateMutability": "view",
      "type": "function"
    },
    {
      "constant": true,
      "inputs": [],
      "name": "secret",
      "outputs": [
        {
          "internalType": "string",
          "name": "",
          "type": "string"
        }
      ],
      "payable": false,
      "stateMutability": "view",
      "type": "function"
    },
    {
      "constant": true,
      "inputs": [],
      "name": "voterCount",
      "outputs": [
        {
          "internalType": "uint256",
          "name": "",
          "type": "uint256"
        }
      ],
      "payable": false,
      "stateMutability": "view",
      "type": "function"
    },
    {
      "constant": false,
      "inputs": [
        {
          "internalType": "string",
          "name": "_email",
          "type": "string"
        },
        {
          "internalType": "string",
          "name": "_birthdate",
          "type": "string"
        },
        {
          "internalType": "string",
          "name": "_gender",
          "type": "string"
        },
        {
          "internalType": "string",
          "name": "_affiliation",
          "type": "string"
        },
        {
          "internalType": "string",
          "name": "_state",
          "type": "string"
        }
      ],
      "name": "registerUser",
      "outputs": [
        {
          "internalType": "uint256",
          "name": "",
          "type": "uint256"
        }
      ],
      "payable": true,
      "stateMutability": "payable",
      "type": "function"
    },
    {
      "constant": false,
      "inputs": [
        {
          "internalType": "string",
          "name": "_email",
          "type": "string"
        },
        {
          "internalType": "string",
          "name": "_birthdate",
          "type": "string"
        },
        {
          "internalType": "string",
          "name": "_gender",
          "type": "string"
        },
        {
          "internalType": "string",
          "name": "_affiliation",
          "type": "string"
        },
        {
          "internalType": "string",
          "name": "_state",
          "type": "string"
        }
      ],
      "name": "verifyUser",
      "outputs": [
        {
          "internalType": "bool",
          "name": "",
          "type": "bool"
        }
      ],
      "payable": false,
      "stateMutability": "nonpayable",
      "type": "function"
    },
    {
      "constant": false,
      "inputs": [
        {
          "internalType": "string",
          "name": "_partyName",
          "type": "string"
        },
        {
          "internalType": "string",
          "name": "_adhaar",
          "type": "string"
        },
        {
          "internalType": "string",
          "name": "_constituency",
          "type": "string"
        }
      ],
      "name": "generateVote",
      "outputs": [
        {
          "internalType": "uint256",
          "name": "",
          "type": "uint256"
        }
      ],
      "payable": false,
      "stateMutability": "nonpayable",
      "type": "function"
    },
    {
      "constant": false,
      "inputs": [
        {
          "internalType": "string",
          "name": "_name",
          "type": "string"
        }
      ],
      "name": "createParty",
      "outputs": [
        {
          "internalType": "uint256",
          "name": "",
          "type": "uint256"
        }
      ],
      "payable": false,
      "stateMutability": "nonpayable",
      "type": "function"
    },
    {
      "constant": false,
      "inputs": [],
      "name": "getAdminKey",
      "outputs": [
        {
          "internalType": "string",
          "name": "",
          "type": "string"
        }
      ],
      "payable": false,
      "stateMutability": "nonpayable",
      "type": "function"
    },
    {
      "constant": false,
      "inputs": [],
      "name": "getPartyCount",
      "outputs": [
        {
          "internalType": "uint256",
          "name": "",
          "type": "uint256"
        }
      ],
      "payable": false,
      "stateMutability": "nonpayable",
      "type": "function"
    },
    {
      "constant": false,
      "inputs": [
        {
          "internalType": "uint256",
          "name": "_id",
          "type": "uint256"
        }
      ],
      "name": "getNames",
      "outputs": [
        {
          "internalType": "uint256",
          "name": "",
          "type": "uint256"
        },
        {
          "internalType": "string",
          "name": "",
          "type": "string"
        }
      ],
      "payable": false,
      "stateMutability": "nonpayable",
      "type": "function"
    }
  ],
  "bytecode": "0x60806040526040518060400160405280600681526020017f3132333435360000000000000000000000000000000000000000000000000000815250600090805190602001906200005192919062000075565b506000600255600060045560006006553480156200006e57600080fd5b5062000124565b828054600181600116156101000203166002900490600052602060002090601f016020900481019282601f10620000b857805160ff1916838001178555620000e9565b82800160010185558215620000e9579182015b82811115620000e8578251825591602001919060010190620000cb565b5b509050620000f89190620000fc565b5090565b6200012191905b808211156200011d57600081600090555060010162000103565b5090565b90565b611ffb80620001346000396000f3fe6080604052600436106100dc5760003560e01c80635718e17b1161007f578063ac9f0a4011610059578063ac9f0a40146102ee578063b45fd7821461031e578063b8df43ae1461035c578063d1efd30d1461039d576100dc565b80635718e17b1461025a57806360b960e5146102985780639eb8e725146102c3576100dc565b8063339d74a3116100bb578063339d74a31461019857806338678ba5146101d957806342169e48146102045780634834088b1461022f576100dc565b80624094db146100e157806310863c0d1461011e57806328eb4a9c1461015b575b600080fd5b3480156100ed57600080fd5b5061010860048036036101039190810190611844565b6103c8565b6040516101159190611d6b565b60405180910390f35b34801561012a57600080fd5b506101456004803603610140919081019061191c565b610482565b6040516101529190611bc0565b60405180910390f35b34801561016757600080fd5b50610182600480360361017d9190810190611885565b610770565b60405161018f9190611d6b565b60405180910390f35b3480156101a457600080fd5b506101bf60048036036101ba9190810190611a0b565b6108e4565b6040516101d0959493929190611e1e565b60405180910390f35b3480156101e557600080fd5b506101ee610ae2565b6040516101fb9190611d6b565b60405180910390f35b34801561021057600080fd5b50610219610ae8565b6040516102269190611d6b565b60405180910390f35b34801561023b57600080fd5b50610244610aee565b6040516102519190611bfd565b60405180910390f35b34801561026657600080fd5b50610281600480360361027c9190810190611a0b565b610b90565b60405161028f929190611d86565b60405180910390f35b3480156102a457600080fd5b506102ad610c75565b6040516102ba9190611d6b565b60405180910390f35b3480156102cf57600080fd5b506102d8610c7f565b6040516102e59190611d6b565b60405180910390f35b6103086004803603610303919081019061191c565b610c85565b6040516103159190611d6b565b60405180910390f35b34801561032a57600080fd5b5061034560048036036103409190810190611a0b565b610dc3565b604051610353929190611d3b565b60405180910390f35b34801561036857600080fd5b50610383600480360361037e9190810190611a0b565b610e7f565b604051610394959493929190611cc5565b60405180910390f35b3480156103a957600080fd5b506103b26111ad565b6040516103bf9190611bdb565b60405180910390f35b60006103d38261124b565b6103dc57600080fd5b600460008154809291906001019190505550604051806040016040528083815260200160008152506003600060045481526020019081526020016000206000820151816000019080519060200190610435929190611736565b50602082015181600101559050507f2b0eeee174d41d45c8b5c15a69654052c8d29819fe75dcf785bb428e343f0655826000604051610475929190611c1f565b60405180910390a1919050565b600080600190505b6006548111610761576060600560008381526020019081526020016000206000018054600181600116156101000203166002900480601f01602080910402602001604051908101604052809291908181526020018280546001816001161561010002031660029004801561053f5780601f106105145761010080835404028352916020019161053f565b820191906000526020600020905b81548152906001019060200180831161052257829003601f168201915b50505050509050876040516020016105579190611b92565b604051602081830303815290604052805190602001208160405160200161057e9190611b92565b60405160208183030381529060405280519060200120141561075357866040516020016105ab9190611b92565b60405160208183030381529060405280519060200120600560008481526020019081526020016000206001016040516020016105e79190611ba9565b6040516020818303038152906040528051906020012014801561066a5750856040516020016106169190611b92565b60405160208183030381529060405280519060200120600560008481526020019081526020016000206002016040516020016106529190611ba9565b60405160208183030381529060405280519060200120145b80156106d65750846040516020016106829190611b92565b60405160208183030381529060405280519060200120600560008481526020019081526020016000206003016040516020016106be9190611ba9565b60405160208183030381529060405280519060200120145b80156107425750836040516020016106ee9190611b92565b604051602081830303815290604052805190602001206005600084815260200190815260200160002060040160405160200161072a9190611ba9565b60405160208183030381529060405280519060200120145b1561075257600192505050610767565b5b50808060010191505061048a565b50600090505b95945050505050565b600061077b83611387565b1561078557600080fd5b61078e836114c3565b61079757600080fd5b6107a08461124b565b156107aa57600080fd5b6002600081548092919060010191905055506040518060a001604052806002548152602001428152602001858152602001848152602001838152506001600060025481526020019081526020016000206000820151816000015560208201518160010155604082015181600201908051906020019061082a929190611736565b506060820151816003019080519060200190610847929190611736565b506080820151816004019080519060200190610864929190611736565b509050506000610873856115ff565b905060036000828152602001908152602001600020600101600081548092919060010191905055507f13c5e646d5829eacc1885d8609b921c6e6f30dcd63a0a7610a2ed75e6c86fae2600254428787876040516108d4959493929190611db6565b60405180910390a1509392505050565b6001602052806000526040600020600091509050806000015490806001015490806002018054600181600116156101000203166002900480601f01602080910402602001604051908101604052809291908181526020018280546001816001161561010002031660029004801561099c5780601f106109715761010080835404028352916020019161099c565b820191906000526020600020905b81548152906001019060200180831161097f57829003601f168201915b505050505090806003018054600181600116156101000203166002900480601f016020809104026020016040519081016040528092919081815260200182805460018160011615610100020316600290048015610a3a5780601f10610a0f57610100808354040283529160200191610a3a565b820191906000526020600020905b815481529060010190602001808311610a1d57829003601f168201915b505050505090806004018054600181600116156101000203166002900480601f016020809104026020016040519081016040528092919081815260200182805460018160011615610100020316600290048015610ad85780601f10610aad57610100808354040283529160200191610ad8565b820191906000526020600020905b815481529060010190602001808311610abb57829003601f168201915b5050505050905085565b60065481565b60025481565b606060008054600181600116156101000203166002900480601f016020809104026020016040519081016040528092919081815260200182805460018160011615610100020316600290048015610b865780601f10610b5b57610100808354040283529160200191610b86565b820191906000526020600020905b815481529060010190602001808311610b6957829003601f168201915b5050505050905090565b60006060600454831115610ba357600080fd5b600360008481526020019081526020016000206001015460036000858152602001908152602001600020600001808054600181600116156101000203166002900480601f016020809104026020016040519081016040528092919081815260200182805460018160011615610100020316600290048015610c655780601f10610c3a57610100808354040283529160200191610c65565b820191906000526020600020905b815481529060010190602001808311610c4857829003601f168201915b5050505050905091509150915091565b6000600454905090565b60045481565b6000610c9086611387565b610c9957600080fd5b6006600081548092919060010191905055506040518060a00160405280878152602001868152602001858152602001848152602001838152506005600060065481526020019081526020016000206000820151816000019080519060200190610d03929190611736565b506020820151816001019080519060200190610d20929190611736565b506040820151816002019080519060200190610d3d929190611736565b506060820151816003019080519060200190610d5a929190611736565b506080820151816004019080519060200190610d77929190611736565b509050507ff8f4f7eba7e55889568fd514067069b1039580eedd66b3c98c6b4c596c5075bc8686868686604051610db2959493929190611c4f565b60405180910390a195945050505050565b6003602052806000526040600020600091509050806000018054600181600116156101000203166002900480601f016020809104026020016040519081016040528092919081815260200182805460018160011615610100020316600290048015610e6f5780601f10610e4457610100808354040283529160200191610e6f565b820191906000526020600020905b815481529060010190602001808311610e5257829003601f168201915b5050505050908060010154905082565b6005602052806000526040600020600091509050806000018054600181600116156101000203166002900480601f016020809104026020016040519081016040528092919081815260200182805460018160011615610100020316600290048015610f2b5780601f10610f0057610100808354040283529160200191610f2b565b820191906000526020600020905b815481529060010190602001808311610f0e57829003601f168201915b505050505090806001018054600181600116156101000203166002900480601f016020809104026020016040519081016040528092919081815260200182805460018160011615610100020316600290048015610fc95780601f10610f9e57610100808354040283529160200191610fc9565b820191906000526020600020905b815481529060010190602001808311610fac57829003601f168201915b505050505090806002018054600181600116156101000203166002900480601f0160208091040260200160405190810160405280929190818152602001828054600181600116156101000203166002900480156110675780601f1061103c57610100808354040283529160200191611067565b820191906000526020600020905b81548152906001019060200180831161104a57829003601f168201915b505050505090806003018054600181600116156101000203166002900480601f0160208091040260200160405190810160405280929190818152602001828054600181600116156101000203166002900480156111055780601f106110da57610100808354040283529160200191611105565b820191906000526020600020905b8154815290600101906020018083116110e857829003601f168201915b505050505090806004018054600181600116156101000203166002900480601f0160208091040260200160405190810160405280929190818152602001828054600181600116156101000203166002900480156111a35780601f10611178576101008083540402835291602001916111a3565b820191906000526020600020905b81548152906001019060200180831161118657829003601f168201915b5050505050905085565b60008054600181600116156101000203166002900480601f0160208091040260200160405190810160405280929190818152602001828054600181600116156101000203166002900480156112435780601f1061121857610100808354040283529160200191611243565b820191906000526020600020905b81548152906001019060200180831161122657829003601f168201915b505050505081565b600080600190505b600454811161137c576060600360008381526020019081526020016000206000018054600181600116156101000203166002900480601f0160208091040260200160405190810160405280929190818152602001828054600181600116156101000203166002900480156113085780601f106112dd57610100808354040283529160200191611308565b820191906000526020600020905b8154815290600101906020018083116112eb57829003601f168201915b50505050509050836040516020016113209190611b92565b60405160208183030381529060405280519060200120816040516020016113479190611b92565b60405160208183030381529060405280519060200120141561136e57600092505050611382565b508080600101915050611253565b50600190505b919050565b600080600190505b60065481116114b8576060600560008381526020019081526020016000206000018054600181600116156101000203166002900480601f0160208091040260200160405190810160405280929190818152602001828054600181600116156101000203166002900480156114445780601f1061141957610100808354040283529160200191611444565b820191906000526020600020905b81548152906001019060200180831161142757829003601f168201915b505050505090508360405160200161145c9190611b92565b60405160208183030381529060405280519060200120816040516020016114839190611b92565b6040516020818303038152906040528051906020012014156114aa576000925050506114be565b50808060010191505061138f565b50600190505b919050565b600080600190505b60025481116115f4576060600160008381526020019081526020016000206003018054600181600116156101000203166002900480601f0160208091040260200160405190810160405280929190818152602001828054600181600116156101000203166002900480156115805780601f1061155557610100808354040283529160200191611580565b820191906000526020600020905b81548152906001019060200180831161156357829003601f168201915b50505050509050836040516020016115989190611b92565b60405160208183030381529060405280519060200120816040516020016115bf9190611b92565b6040516020818303038152906040528051906020012014156115e6576000925050506115fa565b5080806001019150506114cb565b50600190505b919050565b600080600190505b600454811161172f576060600360008381526020019081526020016000206000018054600181600116156101000203166002900480601f0160208091040260200160405190810160405280929190818152602001828054600181600116156101000203166002900480156116bc5780601f10611691576101008083540402835291602001916116bc565b820191906000526020600020905b81548152906001019060200180831161169f57829003601f168201915b50505050509050836040516020016116d49190611b92565b60405160208183030381529060405280519060200120816040516020016116fb9190611b92565b604051602081830303815290604052805190602001201415611721578192505050611731565b508080600101915050611607565b505b919050565b828054600181600116156101000203166002900490600052602060002090601f016020900481019282601f1061177757805160ff19168380011785556117a5565b828001600101855582156117a5579182015b828111156117a4578251825591602001919060010190611789565b5b5090506117b291906117b6565b5090565b6117d891905b808211156117d45760008160009055506001016117bc565b5090565b90565b600082601f8301126117ec57600080fd5b81356117ff6117fa82611eb3565b611e86565b9150808252602083016020830185838301111561181b57600080fd5b611826838284611f4e565b50505092915050565b60008135905061183e81611fa1565b92915050565b60006020828403121561185657600080fd5b600082013567ffffffffffffffff81111561187057600080fd5b61187c848285016117db565b91505092915050565b60008060006060848603121561189a57600080fd5b600084013567ffffffffffffffff8111156118b457600080fd5b6118c0868287016117db565b935050602084013567ffffffffffffffff8111156118dd57600080fd5b6118e9868287016117db565b925050604084013567ffffffffffffffff81111561190657600080fd5b611912868287016117db565b9150509250925092565b600080600080600060a0868803121561193457600080fd5b600086013567ffffffffffffffff81111561194e57600080fd5b61195a888289016117db565b955050602086013567ffffffffffffffff81111561197757600080fd5b611983888289016117db565b945050604086013567ffffffffffffffff8111156119a057600080fd5b6119ac888289016117db565b935050606086013567ffffffffffffffff8111156119c957600080fd5b6119d5888289016117db565b925050608086013567ffffffffffffffff8111156119f257600080fd5b6119fe888289016117db565b9150509295509295909350565b600060208284031215611a1d57600080fd5b6000611a2b8482850161182f565b91505092915050565b611a3d81611f26565b82525050565b611a4c81611f3c565b82525050565b6000611a5d82611eff565b611a678185611f0a565b9350611a77818560208601611f5d565b611a8081611f90565b840191505092915050565b6000611a9682611eff565b611aa08185611f1b565b9350611ab0818560208601611f5d565b80840191505092915050565b6000611ac782611ef4565b611ad18185611f0a565b9350611ae1818560208601611f5d565b611aea81611f90565b840191505092915050565b600081546001811660008114611b125760018114611b3757611b7b565b607f6002830416611b238187611f1b565b955060ff1983168652808601935050611b7b565b60028204611b458187611f1b565b9550611b5085611edf565b60005b82811015611b7257815481890152600182019150602081019050611b53565b82880195505050505b505092915050565b611b8c81611f32565b82525050565b6000611b9e8284611a8b565b915081905092915050565b6000611bb58284611af5565b915081905092915050565b6000602082019050611bd56000830184611a34565b92915050565b60006020820190508181036000830152611bf58184611abc565b905092915050565b60006020820190508181036000830152611c178184611a52565b905092915050565b60006040820190508181036000830152611c398185611a52565b9050611c486020830184611a43565b9392505050565b600060a0820190508181036000830152611c698188611a52565b90508181036020830152611c7d8187611a52565b90508181036040830152611c918186611a52565b90508181036060830152611ca58185611a52565b90508181036080830152611cb98184611a52565b90509695505050505050565b600060a0820190508181036000830152611cdf8188611abc565b90508181036020830152611cf38187611abc565b90508181036040830152611d078186611abc565b90508181036060830152611d1b8185611abc565b90508181036080830152611d2f8184611abc565b90509695505050505050565b60006040820190508181036000830152611d558185611abc565b9050611d646020830184611b83565b9392505050565b6000602082019050611d806000830184611b83565b92915050565b6000604082019050611d9b6000830185611b83565b8181036020830152611dad8184611a52565b90509392505050565b600060a082019050611dcb6000830188611b83565b611dd86020830187611b83565b8181036040830152611dea8186611a52565b90508181036060830152611dfe8185611a52565b90508181036080830152611e128184611a52565b90509695505050505050565b600060a082019050611e336000830188611b83565b611e406020830187611b83565b8181036040830152611e528186611abc565b90508181036060830152611e668185611abc565b90508181036080830152611e7a8184611abc565b90509695505050505050565b6000604051905081810181811067ffffffffffffffff82111715611ea957600080fd5b8060405250919050565b600067ffffffffffffffff821115611eca57600080fd5b601f19601f8301169050602081019050919050565b60008190508160005260206000209050919050565b600081519050919050565b600081519050919050565b600082825260208201905092915050565b600081905092915050565b60008115159050919050565b6000819050919050565b6000611f4782611f32565b9050919050565b82818337600083830152505050565b60005b83811015611f7b578082015181840152602081019050611f60565b83811115611f8a576000848401525b50505050565b6000601f19601f8301169050919050565b611faa81611f32565b8114611fb557600080fd5b5056fea365627a7a72315820ef23e1cc84c8925de4ca65a373f323c18a921bbb645c840cb5c84dcbadb6ceb36c6578706572696d656e74616cf564736f6c63430005100040",
  "source": "pragma solidity >=0.4.21 <0.7.0;\r\npragma experimental ABIEncoderV2;\r\nimport \"./VoteLibrary.sol\";\r\n\r\ncontract VoteTracker\r\n{\r\n    string public secret = \"123456\";\r\n\r\n    mapping(uint => VoteLibrary.Vote) public VoteStore;\r\n    uint256 public voterCount = 0;\r\n\r\n    mapping(uint => VoteLibrary.Party) public PartyStore;\r\n    uint256 public partyCount = 0;\r\n\r\n    mapping(uint => VoteLibrary.Identity) public IdentityStore;\r\n    uint256 public identityCount = 0;\r\n\r\n    function registerUser(string memory _email, string memory _birthdate, string memory _gender, string memory _affiliation, string memory _state) public payable returns(uint256)\r\n    {\r\n        require(checkIfIdCanExist(_email));\r\n        identityCount++;\r\n        IdentityStore[identityCount] = VoteLibrary.Identity(_email, _birthdate, _gender, _affiliation, _state);\r\n        emit IdentityCreate(_email, _birthdate, _gender, _affiliation, _state);\r\n    }\r\n\r\n    function verifyUser(string memory _email, string memory _birthdate, string memory _gender, string memory _affiliation, string memory _state) public returns(bool)\r\n    {\r\n        for(uint i=1;i<=identityCount;i++)\r\n        {\r\n            string memory email = IdentityStore[i].email;\r\n            if(keccak256(abi.encodePacked((email))) == keccak256(abi.encodePacked((_email)))){\r\n                if(keccak256(abi.encodePacked((IdentityStore[i].birthdate))) == keccak256(abi.encodePacked((_birthdate))) &&\r\n                   keccak256(abi.encodePacked((IdentityStore[i].gender))) == keccak256(abi.encodePacked((_gender))) &&\r\n                   keccak256(abi.encodePacked((IdentityStore[i].affiliation))) == keccak256(abi.encodePacked((_affiliation))) &&\r\n                   keccak256(abi.encodePacked((IdentityStore[i].state))) == keccak256(abi.encodePacked((_state)))){\r\n                       return true;\r\n                   }\r\n            }\r\n        }\r\n        return false;\r\n    }\r\n\r\n    function generateVote(string memory _partyName, string memory _adhaar, string memory _constituency) public returns(uint256)\r\n    {\r\n        require(!checkIfIdCanExist(_adhaar));\r\n        require(checkIfCanVote(_adhaar));\r\n        require(!checkIfCanExist(_partyName));\r\n        voterCount++;\r\n        VoteStore[voterCount] = VoteLibrary.Vote(voterCount, block.timestamp, _partyName, _adhaar, _constituency);\r\n        uint partyIndex = getParty(_partyName);\r\n        PartyStore[partyIndex].voteCount++;\r\n        emit VoteGenerate(voterCount, block.timestamp, _partyName, _adhaar, _constituency);\r\n    }\r\n    \r\n    function createParty(string memory _name) public returns(uint256)\r\n    {\r\n        require(checkIfCanExist(_name));\r\n        partyCount++;\r\n        PartyStore[partyCount] = VoteLibrary.Party(_name, 0);\r\n        emit PartyCreate(_name, 0);\r\n    }\r\n\r\n    function getAdminKey() public returns(string memory)\r\n    {\r\n        return secret;\r\n    }\r\n\r\n    function checkIfCanExist(string memory _namer) private returns(bool)\r\n    {\r\n        for(uint i=1;i<=partyCount;i++)\r\n        {\r\n            string memory partyNamed = PartyStore[i].name;\r\n            if(keccak256(abi.encodePacked((partyNamed))) == keccak256(abi.encodePacked((_namer))))\r\n            {\r\n                return false;\r\n            }\r\n        }\r\n        return true;\r\n    }\r\n\r\n    function checkIfIdCanExist(string memory _namered) private returns(bool)\r\n    {\r\n        for(uint i=1;i<=identityCount;i++)\r\n        {\r\n            string memory idNamed = IdentityStore[i].email;\r\n            if(keccak256(abi.encodePacked((idNamed))) == keccak256(abi.encodePacked((_namered))))\r\n            {\r\n                return false;\r\n            }\r\n        }\r\n        return true;\r\n    }\r\n\r\n    function checkIfCanVote(string memory _adhaarer) private returns(bool)\r\n    {\r\n        for(uint i=1;i<=voterCount;i++)\r\n        {\r\n            string memory voteNamed = VoteStore[i].adhaar;\r\n            if(keccak256(abi.encodePacked((voteNamed))) == keccak256(abi.encodePacked((_adhaarer))))\r\n            {\r\n                return false;\r\n            }\r\n        }\r\n        return true;\r\n    }\r\n\r\n    function getParty(string memory _partyNamer) private returns (uint)\r\n    {\r\n        for(uint i=1;i<=partyCount;i++)\r\n        {\r\n            string memory partyNamed = PartyStore[i].name;\r\n            if(keccak256(abi.encodePacked((partyNamed))) == keccak256(abi.encodePacked((_partyNamer))))\r\n            {\r\n                return i;\r\n            }\r\n        }\r\n    }\r\n\r\n    function getPartyCount() public returns (uint)\r\n    {\r\n        return partyCount;\r\n    }\r\n\r\n    function getNames(uint _id) public returns(uint,string memory)\r\n    {\r\n        require(_id<=partyCount);\r\n        return (PartyStore[_id].voteCount,PartyStore[_id].name);\r\n    }\r\n\r\n    event IdentityCreate(string email, string birthdate, string gender, string affiliation, string state);\r\n    event PartyCreate(string name, uint voteCount);\r\n    event VoteGenerate(uint voteCount, uint time, string partyName, string adhaar, string constituency);\r\n}",
  "sourcePath": "C:\\Users\\Danielle\\Documents\\CS415\\cs458\\CS458-Project\\contracts\\VoteTracker.sol",
  "compiler": {
    "name": "solc",
    "version": "0.5.16+commit.9c3226ce.Emscripten.clang"
  },
  "schemaVersion": "3.4.6",
  "updatedAt": "2022-04-27T14:14:51.257Z",
  "networkType": "ethereum",
  "devdoc": {
    "methods": {}
  },
  "userdoc": {
    "methods": {}
  }
}