{
  "contractName": "VoteTracker",
  "abi": [
    {
      "anonymous": false,
      "inputs": [
        {
          "indexed": false,
          "internalType": "string",
          "name": "email",
          "type": "string"
        },
        {
          "indexed": false,
          "internalType": "string",
          "name": "birthdate",
          "type": "string"
        },
        {
          "indexed": false,
          "internalType": "string",
          "name": "gender",
          "type": "string"
        },
        {
          "indexed": false,
          "internalType": "string",
          "name": "affiliation",
          "type": "string"
        },
        {
          "indexed": false,
          "internalType": "string",
          "name": "state",
          "type": "string"
        }
      ],
      "name": "IdentityCreate",
      "type": "event"
    },
    {
      "anonymous": false,
      "inputs": [
        {
          "indexed": false,
          "internalType": "string",
          "name": "name",
          "type": "string"
        },
        {
          "indexed": false,
          "internalType": "uint256",
          "name": "voteCount",
          "type": "uint256"
        }
      ],
      "name": "PartyCreate",
      "type": "event"
    },
    {
      "anonymous": false,
      "inputs": [
        {
          "indexed": false,
          "internalType": "uint256",
          "name": "voteCount",
          "type": "uint256"
        },
        {
          "indexed": false,
          "internalType": "uint256",
          "name": "time",
          "type": "uint256"
        },
        {
          "indexed": false,
          "internalType": "string",
          "name": "partyName",
          "type": "string"
        },
        {
          "indexed": false,
          "internalType": "string",
          "name": "adhaar",
          "type": "string"
        },
        {
          "indexed": false,
          "internalType": "string",
          "name": "constituency",
          "type": "string"
        }
      ],
      "name": "VoteGenerate",
      "type": "event"
    },
    {
      "constant": true,
      "inputs": [
        {
          "internalType": "uint256",
          "name": "",
          "type": "uint256"
        }
      ],
      "name": "IdentityStore",
      "outputs": [
        {
          "internalType": "string",
          "name": "email",
          "type": "string"
        },
        {
          "internalType": "string",
          "name": "birthdate",
          "type": "string"
        },
        {
          "internalType": "string",
          "name": "gender",
          "type": "string"
        },
        {
          "internalType": "string",
          "name": "affiliation",
          "type": "string"
        },
        {
          "internalType": "string",
          "name": "state",
          "type": "string"
        }
      ],
      "payable": false,
      "stateMutability": "view",
      "type": "function"
    },
    {
      "constant": true,
      "inputs": [
        {
          "internalType": "uint256",
          "name": "",
          "type": "uint256"
        }
      ],
      "name": "PartyStore",
      "outputs": [
        {
          "internalType": "string",
          "name": "name",
          "type": "string"
        },
        {
          "internalType": "uint256",
          "name": "voteCount",
          "type": "uint256"
        }
      ],
      "payable": false,
      "stateMutability": "view",
      "type": "function"
    },
    {
      "constant": true,
      "inputs": [
        {
          "internalType": "uint256",
          "name": "",
          "type": "uint256"
        }
      ],
      "name": "VoteStore",
      "outputs": [
        {
          "internalType": "uint256",
          "name": "id",
          "type": "uint256"
        },
        {
          "internalType": "uint256",
          "name": "time",
          "type": "uint256"
        },
        {
          "internalType": "string",
          "name": "PartyName",
          "type": "string"
        },
        {
          "internalType": "string",
          "name": "adhaar",
          "type": "string"
        },
        {
          "internalType": "string",
          "name": "constituency",
          "type": "string"
        }
      ],
      "payable": false,
      "stateMutability": "view",
      "type": "function"
    },
    {
      "constant": true,
      "inputs": [],
      "name": "identityCount",
      "outputs": [
        {
          "internalType": "uint256",
          "name": "",
          "type": "uint256"
        }
      ],
      "payable": false,
      "stateMutability": "view",
      "type": "function"
    },
    {
      "constant": true,
      "inputs": [],
      "name": "partyCount",
      "outputs": [
        {
          "internalType": "uint256",
          "name": "",
          "type": "uint256"
        }
      ],
      "payable": false,
      "stateMutability": "view",
      "type": "function"
    },
    {
      "constant": true,
      "inputs": [],
      "name": "secret",
      "outputs": [
        {
          "internalType": "string",
          "name": "",
          "type": "string"
        }
      ],
      "payable": false,
      "stateMutability": "view",
      "type": "function"
    },
    {
      "constant": true,
      "inputs": [],
      "name": "voterCount",
      "outputs": [
        {
          "internalType": "uint256",
          "name": "",
          "type": "uint256"
        }
      ],
      "payable": false,
      "stateMutability": "view",
      "type": "function"
    },
    {
      "constant": false,
      "inputs": [
        {
          "internalType": "string",
          "name": "_email",
          "type": "string"
        },
        {
          "internalType": "string",
          "name": "_birthdate",
          "type": "string"
        },
        {
          "internalType": "string",
          "name": "_gender",
          "type": "string"
        },
        {
          "internalType": "string",
          "name": "_affiliation",
          "type": "string"
        },
        {
          "internalType": "string",
          "name": "_state",
          "type": "string"
        }
      ],
      "name": "registerUser",
      "outputs": [
        {
          "internalType": "bool",
          "name": "",
          "type": "bool"
        }
      ],
      "payable": false,
      "stateMutability": "nonpayable",
      "type": "function"
    },
    {
      "constant": false,
      "inputs": [
        {
          "internalType": "string",
          "name": "_partyName",
          "type": "string"
        },
        {
          "internalType": "string",
          "name": "_adhaar",
          "type": "string"
        },
        {
          "internalType": "string",
          "name": "_constituency",
          "type": "string"
        }
      ],
      "name": "generateVote",
      "outputs": [
        {
          "internalType": "uint256",
          "name": "",
          "type": "uint256"
        }
      ],
      "payable": false,
      "stateMutability": "nonpayable",
      "type": "function"
    },
    {
      "constant": false,
      "inputs": [
        {
          "internalType": "string",
          "name": "_name",
          "type": "string"
        }
      ],
      "name": "createParty",
      "outputs": [
        {
          "internalType": "uint256",
          "name": "",
          "type": "uint256"
        }
      ],
      "payable": false,
      "stateMutability": "nonpayable",
      "type": "function"
    },
    {
      "constant": false,
      "inputs": [],
      "name": "getAdminKey",
      "outputs": [
        {
          "internalType": "string",
          "name": "",
          "type": "string"
        }
      ],
      "payable": false,
      "stateMutability": "nonpayable",
      "type": "function"
    },
    {
      "constant": false,
      "inputs": [],
      "name": "getPartyCount",
      "outputs": [
        {
          "internalType": "uint256",
          "name": "",
          "type": "uint256"
        }
      ],
      "payable": false,
      "stateMutability": "nonpayable",
      "type": "function"
    },
    {
      "constant": false,
      "inputs": [
        {
          "internalType": "uint256",
          "name": "_id",
          "type": "uint256"
        }
      ],
      "name": "getNames",
      "outputs": [
        {
          "internalType": "uint256",
          "name": "",
          "type": "uint256"
        },
        {
          "internalType": "string",
          "name": "",
          "type": "string"
        }
      ],
      "payable": false,
      "stateMutability": "nonpayable",
      "type": "function"
    }
  ],
  "bytecode": "0x60806040526040518060400160405280600681526020017f3132333435360000000000000000000000000000000000000000000000000000815250600090805190602001906200005192919062000075565b506000600255600060045560006006553480156200006e57600080fd5b5062000124565b828054600181600116156101000203166002900490600052602060002090601f016020900481019282601f10620000b857805160ff1916838001178555620000e9565b82800160010185558215620000e9579182015b82811115620000e8578251825591602001919060010190620000cb565b5b509050620000f89190620000fc565b5090565b6200012191905b808211156200011d57600081600090555060010162000103565b5090565b90565b611b6c80620001346000396000f3fe608060405234801561001057600080fd5b50600436106100ce5760003560e01c80635718e17b1161008c578063ac9f0a4011610066578063ac9f0a401461022e578063b45fd7821461025e578063b8df43ae1461028f578063d1efd30d146102c3576100ce565b80635718e17b146101c157806360b960e5146101f25780639eb8e72514610210576100ce565b80624094db146100d357806328eb4a9c14610103578063339d74a31461013357806338678ba51461016757806342169e48146101855780634834088b146101a3575b600080fd5b6100ed60048036036100e8919081019061146f565b6102e1565b6040516100fa91906118f1565b60405180910390f35b61011d600480360361011891908101906114b0565b61039b565b60405161012a91906118f1565b60405180910390f35b61014d60048036036101489190810190611636565b61050f565b60405161015e9594939291906119a4565b60405180910390f35b61016f61070d565b60405161017c91906118f1565b60405180910390f35b61018d610713565b60405161019a91906118f1565b60405180910390f35b6101ab610719565b6040516101b89190611783565b60405180910390f35b6101db60048036036101d69190810190611636565b6107bb565b6040516101e992919061190c565b60405180910390f35b6101fa6108a0565b60405161020791906118f1565b60405180910390f35b6102186108aa565b60405161022591906118f1565b60405180910390f35b61024860048036036102439190810190611547565b6108b0565b6040516102559190611746565b60405180910390f35b61027860048036036102739190810190611636565b6109ee565b6040516102869291906118c1565b60405180910390f35b6102a960048036036102a49190810190611636565b610aaa565b6040516102ba95949392919061184b565b60405180910390f35b6102cb610dd8565b6040516102d89190611761565b60405180910390f35b60006102ec82610e76565b6102f557600080fd5b60046000815480929190600101919050555060405180604001604052808381526020016000815250600360006004548152602001908152602001600020600082015181600001908051906020019061034e929190611361565b50602082015181600101559050507f2b0eeee174d41d45c8b5c15a69654052c8d29819fe75dcf785bb428e343f065582600060405161038e9291906117a5565b60405180910390a1919050565b60006103a683610fb2565b156103b057600080fd5b6103b9836110ee565b6103c257600080fd5b6103cb84610e76565b156103d557600080fd5b6002600081548092919060010191905055506040518060a0016040528060025481526020014281526020018581526020018481526020018381525060016000600254815260200190815260200160002060008201518160000155602082015181600101556040820151816002019080519060200190610455929190611361565b506060820151816003019080519060200190610472929190611361565b50608082015181600401908051906020019061048f929190611361565b50905050600061049e8561122a565b905060036000828152602001908152602001600020600101600081548092919060010191905055507f13c5e646d5829eacc1885d8609b921c6e6f30dcd63a0a7610a2ed75e6c86fae2600254428787876040516104ff95949392919061193c565b60405180910390a1509392505050565b6001602052806000526040600020600091509050806000015490806001015490806002018054600181600116156101000203166002900480601f0160208091040260200160405190810160405280929190818152602001828054600181600116156101000203166002900480156105c75780601f1061059c576101008083540402835291602001916105c7565b820191906000526020600020905b8154815290600101906020018083116105aa57829003601f168201915b505050505090806003018054600181600116156101000203166002900480601f0160208091040260200160405190810160405280929190818152602001828054600181600116156101000203166002900480156106655780601f1061063a57610100808354040283529160200191610665565b820191906000526020600020905b81548152906001019060200180831161064857829003601f168201915b505050505090806004018054600181600116156101000203166002900480601f0160208091040260200160405190810160405280929190818152602001828054600181600116156101000203166002900480156107035780601f106106d857610100808354040283529160200191610703565b820191906000526020600020905b8154815290600101906020018083116106e657829003601f168201915b5050505050905085565b60065481565b60025481565b606060008054600181600116156101000203166002900480601f0160208091040260200160405190810160405280929190818152602001828054600181600116156101000203166002900480156107b15780601f10610786576101008083540402835291602001916107b1565b820191906000526020600020905b81548152906001019060200180831161079457829003601f168201915b5050505050905090565b600060606004548311156107ce57600080fd5b600360008481526020019081526020016000206001015460036000858152602001908152602001600020600001808054600181600116156101000203166002900480601f0160208091040260200160405190810160405280929190818152602001828054600181600116156101000203166002900480156108905780601f1061086557610100808354040283529160200191610890565b820191906000526020600020905b81548152906001019060200180831161087357829003601f168201915b5050505050905091509150915091565b6000600454905090565b60045481565b60006108bb86610fb2565b6108c457600080fd5b6006600081548092919060010191905055506040518060a0016040528087815260200186815260200185815260200184815260200183815250600560006006548152602001908152602001600020600082015181600001908051906020019061092e929190611361565b50602082015181600101908051906020019061094b929190611361565b506040820151816002019080519060200190610968929190611361565b506060820151816003019080519060200190610985929190611361565b5060808201518160040190805190602001906109a2929190611361565b509050507ff8f4f7eba7e55889568fd514067069b1039580eedd66b3c98c6b4c596c5075bc86868686866040516109dd9594939291906117d5565b60405180910390a195945050505050565b6003602052806000526040600020600091509050806000018054600181600116156101000203166002900480601f016020809104026020016040519081016040528092919081815260200182805460018160011615610100020316600290048015610a9a5780601f10610a6f57610100808354040283529160200191610a9a565b820191906000526020600020905b815481529060010190602001808311610a7d57829003601f168201915b5050505050908060010154905082565b6005602052806000526040600020600091509050806000018054600181600116156101000203166002900480601f016020809104026020016040519081016040528092919081815260200182805460018160011615610100020316600290048015610b565780601f10610b2b57610100808354040283529160200191610b56565b820191906000526020600020905b815481529060010190602001808311610b3957829003601f168201915b505050505090806001018054600181600116156101000203166002900480601f016020809104026020016040519081016040528092919081815260200182805460018160011615610100020316600290048015610bf45780601f10610bc957610100808354040283529160200191610bf4565b820191906000526020600020905b815481529060010190602001808311610bd757829003601f168201915b505050505090806002018054600181600116156101000203166002900480601f016020809104026020016040519081016040528092919081815260200182805460018160011615610100020316600290048015610c925780601f10610c6757610100808354040283529160200191610c92565b820191906000526020600020905b815481529060010190602001808311610c7557829003601f168201915b505050505090806003018054600181600116156101000203166002900480601f016020809104026020016040519081016040528092919081815260200182805460018160011615610100020316600290048015610d305780601f10610d0557610100808354040283529160200191610d30565b820191906000526020600020905b815481529060010190602001808311610d1357829003601f168201915b505050505090806004018054600181600116156101000203166002900480601f016020809104026020016040519081016040528092919081815260200182805460018160011615610100020316600290048015610dce5780601f10610da357610100808354040283529160200191610dce565b820191906000526020600020905b815481529060010190602001808311610db157829003601f168201915b5050505050905085565b60008054600181600116156101000203166002900480601f016020809104026020016040519081016040528092919081815260200182805460018160011615610100020316600290048015610e6e5780601f10610e4357610100808354040283529160200191610e6e565b820191906000526020600020905b815481529060010190602001808311610e5157829003601f168201915b505050505081565b600080600190505b6004548111610fa7576060600360008381526020019081526020016000206000018054600181600116156101000203166002900480601f016020809104026020016040519081016040528092919081815260200182805460018160011615610100020316600290048015610f335780601f10610f0857610100808354040283529160200191610f33565b820191906000526020600020905b815481529060010190602001808311610f1657829003601f168201915b5050505050905083604051602001610f4b919061172f565b6040516020818303038152906040528051906020012081604051602001610f72919061172f565b604051602081830303815290604052805190602001201415610f9957600092505050610fad565b508080600101915050610e7e565b50600190505b919050565b600080600190505b60065481116110e3576060600560008381526020019081526020016000206000018054600181600116156101000203166002900480601f01602080910402602001604051908101604052809291908181526020018280546001816001161561010002031660029004801561106f5780601f106110445761010080835404028352916020019161106f565b820191906000526020600020905b81548152906001019060200180831161105257829003601f168201915b5050505050905083604051602001611087919061172f565b60405160208183030381529060405280519060200120816040516020016110ae919061172f565b6040516020818303038152906040528051906020012014156110d5576000925050506110e9565b508080600101915050610fba565b50600190505b919050565b600080600190505b600254811161121f576060600160008381526020019081526020016000206003018054600181600116156101000203166002900480601f0160208091040260200160405190810160405280929190818152602001828054600181600116156101000203166002900480156111ab5780601f10611180576101008083540402835291602001916111ab565b820191906000526020600020905b81548152906001019060200180831161118e57829003601f168201915b50505050509050836040516020016111c3919061172f565b60405160208183030381529060405280519060200120816040516020016111ea919061172f565b60405160208183030381529060405280519060200120141561121157600092505050611225565b5080806001019150506110f6565b50600190505b919050565b600080600190505b600454811161135a576060600360008381526020019081526020016000206000018054600181600116156101000203166002900480601f0160208091040260200160405190810160405280929190818152602001828054600181600116156101000203166002900480156112e75780601f106112bc576101008083540402835291602001916112e7565b820191906000526020600020905b8154815290600101906020018083116112ca57829003601f168201915b50505050509050836040516020016112ff919061172f565b6040516020818303038152906040528051906020012081604051602001611326919061172f565b60405160208183030381529060405280519060200120141561134c57819250505061135c565b508080600101915050611232565b505b919050565b828054600181600116156101000203166002900490600052602060002090601f016020900481019282601f106113a257805160ff19168380011785556113d0565b828001600101855582156113d0579182015b828111156113cf5782518255916020019190600101906113b4565b5b5090506113dd91906113e1565b5090565b61140391905b808211156113ff5760008160009055506001016113e7565b5090565b90565b600082601f83011261141757600080fd5b813561142a61142582611a39565b611a0c565b9150808252602083016020830185838301111561144657600080fd5b611451838284611abf565b50505092915050565b60008135905061146981611b12565b92915050565b60006020828403121561148157600080fd5b600082013567ffffffffffffffff81111561149b57600080fd5b6114a784828501611406565b91505092915050565b6000806000606084860312156114c557600080fd5b600084013567ffffffffffffffff8111156114df57600080fd5b6114eb86828701611406565b935050602084013567ffffffffffffffff81111561150857600080fd5b61151486828701611406565b925050604084013567ffffffffffffffff81111561153157600080fd5b61153d86828701611406565b9150509250925092565b600080600080600060a0868803121561155f57600080fd5b600086013567ffffffffffffffff81111561157957600080fd5b61158588828901611406565b955050602086013567ffffffffffffffff8111156115a257600080fd5b6115ae88828901611406565b945050604086013567ffffffffffffffff8111156115cb57600080fd5b6115d788828901611406565b935050606086013567ffffffffffffffff8111156115f457600080fd5b61160088828901611406565b925050608086013567ffffffffffffffff81111561161d57600080fd5b61162988828901611406565b9150509295509295909350565b60006020828403121561164857600080fd5b60006116568482850161145a565b91505092915050565b61166881611a97565b82525050565b61167781611aad565b82525050565b600061168882611a70565b6116928185611a7b565b93506116a2818560208601611ace565b6116ab81611b01565b840191505092915050565b60006116c182611a70565b6116cb8185611a8c565b93506116db818560208601611ace565b80840191505092915050565b60006116f282611a65565b6116fc8185611a7b565b935061170c818560208601611ace565b61171581611b01565b840191505092915050565b61172981611aa3565b82525050565b600061173b82846116b6565b915081905092915050565b600060208201905061175b600083018461165f565b92915050565b6000602082019050818103600083015261177b81846116e7565b905092915050565b6000602082019050818103600083015261179d818461167d565b905092915050565b600060408201905081810360008301526117bf818561167d565b90506117ce602083018461166e565b9392505050565b600060a08201905081810360008301526117ef818861167d565b90508181036020830152611803818761167d565b90508181036040830152611817818661167d565b9050818103606083015261182b818561167d565b9050818103608083015261183f818461167d565b90509695505050505050565b600060a082019050818103600083015261186581886116e7565b9050818103602083015261187981876116e7565b9050818103604083015261188d81866116e7565b905081810360608301526118a181856116e7565b905081810360808301526118b581846116e7565b90509695505050505050565b600060408201905081810360008301526118db81856116e7565b90506118ea6020830184611720565b9392505050565b60006020820190506119066000830184611720565b92915050565b60006040820190506119216000830185611720565b8181036020830152611933818461167d565b90509392505050565b600060a0820190506119516000830188611720565b61195e6020830187611720565b8181036040830152611970818661167d565b90508181036060830152611984818561167d565b90508181036080830152611998818461167d565b90509695505050505050565b600060a0820190506119b96000830188611720565b6119c66020830187611720565b81810360408301526119d881866116e7565b905081810360608301526119ec81856116e7565b90508181036080830152611a0081846116e7565b90509695505050505050565b6000604051905081810181811067ffffffffffffffff82111715611a2f57600080fd5b8060405250919050565b600067ffffffffffffffff821115611a5057600080fd5b601f19601f8301169050602081019050919050565b600081519050919050565b600081519050919050565b600082825260208201905092915050565b600081905092915050565b60008115159050919050565b6000819050919050565b6000611ab882611aa3565b9050919050565b82818337600083830152505050565b60005b83811015611aec578082015181840152602081019050611ad1565b83811115611afb576000848401525b50505050565b6000601f19601f8301169050919050565b611b1b81611aa3565b8114611b2657600080fd5b5056fea365627a7a7231582002196f891f43cb482f724b0fb180f0373a5f8b1b31ea7ac5947de0b45fd8e2516c6578706572696d656e74616cf564736f6c63430005100040",
  "source": "pragma solidity >=0.4.21 <0.7.0;\r\npragma experimental ABIEncoderV2;\r\nimport \"./VoteLibrary.sol\";\r\n\r\ncontract VoteTracker\r\n{\r\n    string public secret = \"123456\";\r\n\r\n    mapping(uint => VoteLibrary.Vote) public VoteStore;\r\n    uint256 public voterCount = 0;\r\n\r\n    mapping(uint => VoteLibrary.Party) public PartyStore;\r\n    uint256 public partyCount = 0;\r\n\r\n    mapping(uint => VoteLibrary.Identity) public IdentityStore;\r\n    uint256 public identityCount = 0;\r\n\r\n    function registerUser(string memory _email, string memory _birthdate, string memory _gender, string memory _affiliation, string memory _state) public returns(bool)\r\n    {\r\n        require(checkIfIdCanExist(_email));\r\n        identityCount++;\r\n        IdentityStore[identityCount] = VoteLibrary.Identity(_email, _birthdate, _gender, _affiliation, _state);\r\n        emit IdentityCreate(_email, _birthdate, _gender, _affiliation, _state);\r\n    }\r\n\r\n    function generateVote(string memory _partyName, string memory _adhaar, string memory _constituency) public returns(uint256)\r\n    {\r\n        require(!checkIfIdCanExist(_adhaar));\r\n        require(checkIfCanVote(_adhaar));\r\n        require(!checkIfCanExist(_partyName));\r\n        voterCount++;\r\n        VoteStore[voterCount] = VoteLibrary.Vote(voterCount, block.timestamp, _partyName, _adhaar, _constituency);\r\n        uint partyIndex = getParty(_partyName);\r\n        PartyStore[partyIndex].voteCount++;\r\n        emit VoteGenerate(voterCount, block.timestamp, _partyName, _adhaar, _constituency);\r\n    }\r\n    \r\n    function createParty(string memory _name) public returns(uint256)\r\n    {\r\n        require(checkIfCanExist(_name));\r\n        partyCount++;\r\n        PartyStore[partyCount] = VoteLibrary.Party(_name, 0);\r\n        emit PartyCreate(_name, 0);\r\n    }\r\n\r\n    function getAdminKey() public returns(string memory)\r\n    {\r\n        return secret;\r\n    }\r\n\r\n    function checkIfCanExist(string memory _namer) private returns(bool)\r\n    {\r\n        for(uint i=1;i<=partyCount;i++)\r\n        {\r\n            string memory partyNamed = PartyStore[i].name;\r\n            if(keccak256(abi.encodePacked((partyNamed))) == keccak256(abi.encodePacked((_namer))))\r\n            {\r\n                return false;\r\n            }\r\n        }\r\n        return true;\r\n    }\r\n\r\n    function checkIfIdCanExist(string memory _namered) private returns(bool)\r\n    {\r\n        for(uint i=1;i<=identityCount;i++)\r\n        {\r\n            string memory idNamed = IdentityStore[i].email;\r\n            if(keccak256(abi.encodePacked((idNamed))) == keccak256(abi.encodePacked((_namered))))\r\n            {\r\n                return false;\r\n            }\r\n        }\r\n        return true;\r\n    }\r\n\r\n    function checkIfCanVote(string memory _adhaarer) private returns(bool)\r\n    {\r\n        for(uint i=1;i<=voterCount;i++)\r\n        {\r\n            string memory voteNamed = VoteStore[i].adhaar;\r\n            if(keccak256(abi.encodePacked((voteNamed))) == keccak256(abi.encodePacked((_adhaarer))))\r\n            {\r\n                return false;\r\n            }\r\n        }\r\n        return true;\r\n    }\r\n\r\n    function getParty(string memory _partyNamer) private returns (uint)\r\n    {\r\n        for(uint i=1;i<=partyCount;i++)\r\n        {\r\n            string memory partyNamed = PartyStore[i].name;\r\n            if(keccak256(abi.encodePacked((partyNamed))) == keccak256(abi.encodePacked((_partyNamer))))\r\n            {\r\n                return i;\r\n            }\r\n        }\r\n    }\r\n\r\n    function getPartyCount() public returns (uint)\r\n    {\r\n        return partyCount;\r\n    }\r\n\r\n    function getNames(uint _id) public returns(uint,string memory)\r\n    {\r\n        require(_id<=partyCount);\r\n        return (PartyStore[_id].voteCount,PartyStore[_id].name);\r\n    }\r\n\r\n    event IdentityCreate(string email, string birthdate, string gender, string affiliation, string state);\r\n    event PartyCreate(string name, uint voteCount);\r\n    event VoteGenerate(uint voteCount, uint time, string partyName, string adhaar, string constituency);\r\n}",
  "sourcePath": "C:\\Users\\Danielle\\Documents\\CS415\\cs458\\CS458-Project\\contracts\\VoteTracker.sol",
  "compiler": {
    "name": "solc",
    "version": "0.5.16+commit.9c3226ce.Emscripten.clang"
  },
  "schemaVersion": "3.4.6",
  "updatedAt": "2022-04-29T14:56:09.285Z",
  "networkType": "ethereum",
  "devdoc": {
    "methods": {}
  },
  "userdoc": {
    "methods": {}
  }
}