{
  "contractName": "VoteTracker",
  "abi": [
    {
      "anonymous": false,
      "inputs": [
        {
          "indexed": false,
          "internalType": "string",
          "name": "email",
          "type": "string"
        },
        {
          "indexed": false,
          "internalType": "string",
          "name": "birthdate",
          "type": "string"
        },
        {
          "indexed": false,
          "internalType": "string",
          "name": "gender",
          "type": "string"
        },
        {
          "indexed": false,
          "internalType": "string",
          "name": "affiliation",
          "type": "string"
        },
        {
          "indexed": false,
          "internalType": "string",
          "name": "state",
          "type": "string"
        }
      ],
      "name": "IdentityCreate",
      "type": "event"
    },
    {
      "anonymous": false,
      "inputs": [
        {
          "indexed": false,
          "internalType": "string",
          "name": "name",
          "type": "string"
        },
        {
          "indexed": false,
          "internalType": "uint256",
          "name": "voteCount",
          "type": "uint256"
        }
      ],
      "name": "PartyCreate",
      "type": "event"
    },
    {
      "anonymous": false,
      "inputs": [
        {
          "indexed": false,
          "internalType": "uint256",
          "name": "voteCount",
          "type": "uint256"
        },
        {
          "indexed": false,
          "internalType": "uint256",
          "name": "time",
          "type": "uint256"
        },
        {
          "indexed": false,
          "internalType": "string",
          "name": "partyName",
          "type": "string"
        },
        {
          "indexed": false,
          "internalType": "string",
          "name": "adhaar",
          "type": "string"
        },
        {
          "indexed": false,
          "internalType": "string",
          "name": "constituency",
          "type": "string"
        }
      ],
      "name": "VoteGenerate",
      "type": "event"
    },
    {
      "constant": true,
      "inputs": [
        {
          "internalType": "uint256",
          "name": "",
          "type": "uint256"
        }
      ],
      "name": "IdentityStore",
      "outputs": [
        {
          "internalType": "string",
          "name": "email",
          "type": "string"
        },
        {
          "internalType": "string",
          "name": "birthdate",
          "type": "string"
        },
        {
          "internalType": "string",
          "name": "gender",
          "type": "string"
        },
        {
          "internalType": "string",
          "name": "affiliation",
          "type": "string"
        },
        {
          "internalType": "string",
          "name": "state",
          "type": "string"
        }
      ],
      "payable": false,
      "stateMutability": "view",
      "type": "function"
    },
    {
      "constant": true,
      "inputs": [
        {
          "internalType": "uint256",
          "name": "",
          "type": "uint256"
        }
      ],
      "name": "PartyStore",
      "outputs": [
        {
          "internalType": "string",
          "name": "name",
          "type": "string"
        },
        {
          "internalType": "uint256",
          "name": "voteCount",
          "type": "uint256"
        }
      ],
      "payable": false,
      "stateMutability": "view",
      "type": "function"
    },
    {
      "constant": true,
      "inputs": [
        {
          "internalType": "uint256",
          "name": "",
          "type": "uint256"
        }
      ],
      "name": "VoteStore",
      "outputs": [
        {
          "internalType": "uint256",
          "name": "id",
          "type": "uint256"
        },
        {
          "internalType": "uint256",
          "name": "time",
          "type": "uint256"
        },
        {
          "internalType": "string",
          "name": "PartyName",
          "type": "string"
        },
        {
          "internalType": "string",
          "name": "adhaar",
          "type": "string"
        },
        {
          "internalType": "string",
          "name": "constituency",
          "type": "string"
        }
      ],
      "payable": false,
      "stateMutability": "view",
      "type": "function"
    },
    {
      "constant": true,
      "inputs": [],
      "name": "identityCount",
      "outputs": [
        {
          "internalType": "uint256",
          "name": "",
          "type": "uint256"
        }
      ],
      "payable": false,
      "stateMutability": "view",
      "type": "function"
    },
    {
      "constant": true,
      "inputs": [],
      "name": "partyCount",
      "outputs": [
        {
          "internalType": "uint256",
          "name": "",
          "type": "uint256"
        }
      ],
      "payable": false,
      "stateMutability": "view",
      "type": "function"
    },
    {
      "constant": true,
      "inputs": [],
      "name": "secret",
      "outputs": [
        {
          "internalType": "string",
          "name": "",
          "type": "string"
        }
      ],
      "payable": false,
      "stateMutability": "view",
      "type": "function"
    },
    {
      "constant": true,
      "inputs": [],
      "name": "voterCount",
      "outputs": [
        {
          "internalType": "uint256",
          "name": "",
          "type": "uint256"
        }
      ],
      "payable": false,
      "stateMutability": "view",
      "type": "function"
    },
    {
      "constant": false,
      "inputs": [
        {
          "internalType": "string",
          "name": "_email",
          "type": "string"
        },
        {
          "internalType": "string",
          "name": "_birthdate",
          "type": "string"
        },
        {
          "internalType": "string",
          "name": "_gender",
          "type": "string"
        },
        {
          "internalType": "string",
          "name": "_affiliation",
          "type": "string"
        },
        {
          "internalType": "string",
          "name": "_state",
          "type": "string"
        }
      ],
      "name": "registerUser",
      "outputs": [
        {
          "internalType": "uint256",
          "name": "",
          "type": "uint256"
        }
      ],
      "payable": false,
      "stateMutability": "nonpayable",
      "type": "function"
    },
    {
      "constant": false,
      "inputs": [
        {
          "internalType": "string",
          "name": "_email",
          "type": "string"
        }
      ],
      "name": "verifyUser",
      "outputs": [
        {
          "internalType": "bool",
          "name": "",
          "type": "bool"
        }
      ],
      "payable": false,
      "stateMutability": "nonpayable",
      "type": "function"
    },
    {
      "constant": false,
      "inputs": [
        {
          "internalType": "string",
          "name": "_partyName",
          "type": "string"
        },
        {
          "internalType": "string",
          "name": "email",
          "type": "string"
        },
        {
          "internalType": "string",
          "name": "_constituency",
          "type": "string"
        }
      ],
      "name": "generateVote",
      "outputs": [
        {
          "internalType": "uint256",
          "name": "",
          "type": "uint256"
        }
      ],
      "payable": false,
      "stateMutability": "nonpayable",
      "type": "function"
    },
    {
      "constant": false,
      "inputs": [
        {
          "internalType": "string",
          "name": "_name",
          "type": "string"
        }
      ],
      "name": "createParty",
      "outputs": [
        {
          "internalType": "uint256",
          "name": "",
          "type": "uint256"
        }
      ],
      "payable": false,
      "stateMutability": "nonpayable",
      "type": "function"
    },
    {
      "constant": false,
      "inputs": [],
      "name": "getAdminKey",
      "outputs": [
        {
          "internalType": "string",
          "name": "",
          "type": "string"
        }
      ],
      "payable": false,
      "stateMutability": "nonpayable",
      "type": "function"
    },
    {
      "constant": false,
      "inputs": [],
      "name": "getPartyCount",
      "outputs": [
        {
          "internalType": "uint256",
          "name": "",
          "type": "uint256"
        }
      ],
      "payable": false,
      "stateMutability": "nonpayable",
      "type": "function"
    },
    {
      "constant": false,
      "inputs": [
        {
          "internalType": "uint256",
          "name": "_id",
          "type": "uint256"
        }
      ],
      "name": "getNames",
      "outputs": [
        {
          "internalType": "uint256",
          "name": "",
          "type": "uint256"
        },
        {
          "internalType": "string",
          "name": "",
          "type": "string"
        }
      ],
      "payable": false,
      "stateMutability": "nonpayable",
      "type": "function"
    }
  ],
  "bytecode": "0x60806040526040518060400160405280600681526020017f3132333435360000000000000000000000000000000000000000000000000000815250600090805190602001906200005192919062000075565b506000600255600060045560006006553480156200006e57600080fd5b5062000124565b828054600181600116156101000203166002900490600052602060002090601f016020900481019282601f10620000b857805160ff1916838001178555620000e9565b82800160010185558215620000e9579182015b82811115620000e8578251825591602001919060010190620000cb565b5b509050620000f89190620000fc565b5090565b6200012191905b808211156200011d57600081600090555060010162000103565b5090565b90565b611bd580620001346000396000f3fe608060405234801561001057600080fd5b50600436106100e95760003560e01c806360b960e51161008c578063b45fd78211610066578063b45fd78214610279578063b8df43ae146102aa578063d1efd30d146102de578063e600c817146102fc576100e9565b806360b960e51461020d5780639eb8e7251461022b578063ac9f0a4014610249576100e9565b806338678ba5116100c857806338678ba51461018257806342169e48146101a05780634834088b146101be5780635718e17b146101dc576100e9565b80624094db146100ee57806328eb4a9c1461011e578063339d74a31461014e575b600080fd5b610108600480360361010391908101906114d8565b61032c565b604051610115919061195a565b60405180910390f35b61013860048036036101339190810190611519565b6103e6565b604051610145919061195a565b60405180910390f35b6101686004803603610163919081019061169f565b61055a565b604051610179959493929190611a0d565b60405180910390f35b61018a610758565b604051610197919061195a565b60405180910390f35b6101a861075e565b6040516101b5919061195a565b60405180910390f35b6101c6610764565b6040516101d391906117ec565b60405180910390f35b6101f660048036036101f1919081019061169f565b610806565b604051610204929190611975565b60405180910390f35b6102156108eb565b604051610222919061195a565b60405180910390f35b6102336108f5565b604051610240919061195a565b60405180910390f35b610263600480360361025e91908101906115b0565b6108fb565b604051610270919061195a565b60405180910390f35b610293600480360361028e919081019061169f565b610a39565b6040516102a192919061192a565b60405180910390f35b6102c460048036036102bf919081019061169f565b610af5565b6040516102d59594939291906118b4565b60405180910390f35b6102e6610e23565b6040516102f391906117ca565b60405180910390f35b610316600480360361031191908101906114d8565b610ec1565b60405161032391906117af565b60405180910390f35b600061033782610edf565b61034057600080fd5b6004600081548092919060010191905055506040518060400160405280838152602001600081525060036000600454815260200190815260200160002060008201518160000190805190602001906103999291906113ca565b50602082015181600101559050507f2b0eeee174d41d45c8b5c15a69654052c8d29819fe75dcf785bb428e343f06558260006040516103d992919061180e565b60405180910390a1919050565b60006103f18361101b565b156103fb57600080fd5b61040483611157565b61040d57600080fd5b61041684610edf565b1561042057600080fd5b6002600081548092919060010191905055506040518060a00160405280600254815260200142815260200185815260200184815260200183815250600160006002548152602001908152602001600020600082015181600001556020820151816001015560408201518160020190805190602001906104a09291906113ca565b5060608201518160030190805190602001906104bd9291906113ca565b5060808201518160040190805190602001906104da9291906113ca565b5090505060006104e985611293565b905060036000828152602001908152602001600020600101600081548092919060010191905055507f13c5e646d5829eacc1885d8609b921c6e6f30dcd63a0a7610a2ed75e6c86fae26002544287878760405161054a9594939291906119a5565b60405180910390a1509392505050565b6001602052806000526040600020600091509050806000015490806001015490806002018054600181600116156101000203166002900480601f0160208091040260200160405190810160405280929190818152602001828054600181600116156101000203166002900480156106125780601f106105e757610100808354040283529160200191610612565b820191906000526020600020905b8154815290600101906020018083116105f557829003601f168201915b505050505090806003018054600181600116156101000203166002900480601f0160208091040260200160405190810160405280929190818152602001828054600181600116156101000203166002900480156106b05780601f10610685576101008083540402835291602001916106b0565b820191906000526020600020905b81548152906001019060200180831161069357829003601f168201915b505050505090806004018054600181600116156101000203166002900480601f01602080910402602001604051908101604052809291908181526020018280546001816001161561010002031660029004801561074e5780601f106107235761010080835404028352916020019161074e565b820191906000526020600020905b81548152906001019060200180831161073157829003601f168201915b5050505050905085565b60065481565b60025481565b606060008054600181600116156101000203166002900480601f0160208091040260200160405190810160405280929190818152602001828054600181600116156101000203166002900480156107fc5780601f106107d1576101008083540402835291602001916107fc565b820191906000526020600020905b8154815290600101906020018083116107df57829003601f168201915b5050505050905090565b6000606060045483111561081957600080fd5b600360008481526020019081526020016000206001015460036000858152602001908152602001600020600001808054600181600116156101000203166002900480601f0160208091040260200160405190810160405280929190818152602001828054600181600116156101000203166002900480156108db5780601f106108b0576101008083540402835291602001916108db565b820191906000526020600020905b8154815290600101906020018083116108be57829003601f168201915b5050505050905091509150915091565b6000600454905090565b60045481565b60006109068661101b565b61090f57600080fd5b6006600081548092919060010191905055506040518060a001604052808781526020018681526020018581526020018481526020018381525060056000600654815260200190815260200160002060008201518160000190805190602001906109799291906113ca565b5060208201518160010190805190602001906109969291906113ca565b5060408201518160020190805190602001906109b39291906113ca565b5060608201518160030190805190602001906109d09291906113ca565b5060808201518160040190805190602001906109ed9291906113ca565b509050507ff8f4f7eba7e55889568fd514067069b1039580eedd66b3c98c6b4c596c5075bc8686868686604051610a2895949392919061183e565b60405180910390a195945050505050565b6003602052806000526040600020600091509050806000018054600181600116156101000203166002900480601f016020809104026020016040519081016040528092919081815260200182805460018160011615610100020316600290048015610ae55780601f10610aba57610100808354040283529160200191610ae5565b820191906000526020600020905b815481529060010190602001808311610ac857829003601f168201915b5050505050908060010154905082565b6005602052806000526040600020600091509050806000018054600181600116156101000203166002900480601f016020809104026020016040519081016040528092919081815260200182805460018160011615610100020316600290048015610ba15780601f10610b7657610100808354040283529160200191610ba1565b820191906000526020600020905b815481529060010190602001808311610b8457829003601f168201915b505050505090806001018054600181600116156101000203166002900480601f016020809104026020016040519081016040528092919081815260200182805460018160011615610100020316600290048015610c3f5780601f10610c1457610100808354040283529160200191610c3f565b820191906000526020600020905b815481529060010190602001808311610c2257829003601f168201915b505050505090806002018054600181600116156101000203166002900480601f016020809104026020016040519081016040528092919081815260200182805460018160011615610100020316600290048015610cdd5780601f10610cb257610100808354040283529160200191610cdd565b820191906000526020600020905b815481529060010190602001808311610cc057829003601f168201915b505050505090806003018054600181600116156101000203166002900480601f016020809104026020016040519081016040528092919081815260200182805460018160011615610100020316600290048015610d7b5780601f10610d5057610100808354040283529160200191610d7b565b820191906000526020600020905b815481529060010190602001808311610d5e57829003601f168201915b505050505090806004018054600181600116156101000203166002900480601f016020809104026020016040519081016040528092919081815260200182805460018160011615610100020316600290048015610e195780601f10610dee57610100808354040283529160200191610e19565b820191906000526020600020905b815481529060010190602001808311610dfc57829003601f168201915b5050505050905085565b60008054600181600116156101000203166002900480601f016020809104026020016040519081016040528092919081815260200182805460018160011615610100020316600290048015610eb95780601f10610e8e57610100808354040283529160200191610eb9565b820191906000526020600020905b815481529060010190602001808311610e9c57829003601f168201915b505050505081565b6000610ecc8261101b565b15610ed657600080fd5b60019050919050565b600080600190505b6004548111611010576060600360008381526020019081526020016000206000018054600181600116156101000203166002900480601f016020809104026020016040519081016040528092919081815260200182805460018160011615610100020316600290048015610f9c5780601f10610f7157610100808354040283529160200191610f9c565b820191906000526020600020905b815481529060010190602001808311610f7f57829003601f168201915b5050505050905083604051602001610fb49190611798565b6040516020818303038152906040528051906020012081604051602001610fdb9190611798565b60405160208183030381529060405280519060200120141561100257600092505050611016565b508080600101915050610ee7565b50600190505b919050565b600080600190505b600654811161114c576060600560008381526020019081526020016000206000018054600181600116156101000203166002900480601f0160208091040260200160405190810160405280929190818152602001828054600181600116156101000203166002900480156110d85780601f106110ad576101008083540402835291602001916110d8565b820191906000526020600020905b8154815290600101906020018083116110bb57829003601f168201915b50505050509050836040516020016110f09190611798565b60405160208183030381529060405280519060200120816040516020016111179190611798565b60405160208183030381529060405280519060200120141561113e57600092505050611152565b508080600101915050611023565b50600190505b919050565b600080600190505b6002548111611288576060600160008381526020019081526020016000206003018054600181600116156101000203166002900480601f0160208091040260200160405190810160405280929190818152602001828054600181600116156101000203166002900480156112145780601f106111e957610100808354040283529160200191611214565b820191906000526020600020905b8154815290600101906020018083116111f757829003601f168201915b505050505090508360405160200161122c9190611798565b60405160208183030381529060405280519060200120816040516020016112539190611798565b60405160208183030381529060405280519060200120141561127a5760009250505061128e565b50808060010191505061115f565b50600190505b919050565b600080600190505b60045481116113c3576060600360008381526020019081526020016000206000018054600181600116156101000203166002900480601f0160208091040260200160405190810160405280929190818152602001828054600181600116156101000203166002900480156113505780601f1061132557610100808354040283529160200191611350565b820191906000526020600020905b81548152906001019060200180831161133357829003601f168201915b50505050509050836040516020016113689190611798565b604051602081830303815290604052805190602001208160405160200161138f9190611798565b6040516020818303038152906040528051906020012014156113b55781925050506113c5565b50808060010191505061129b565b505b919050565b828054600181600116156101000203166002900490600052602060002090601f016020900481019282601f1061140b57805160ff1916838001178555611439565b82800160010185558215611439579182015b8281111561143857825182559160200191906001019061141d565b5b509050611446919061144a565b5090565b61146c91905b80821115611468576000816000905550600101611450565b5090565b90565b600082601f83011261148057600080fd5b813561149361148e82611aa2565b611a75565b915080825260208301602083018583830111156114af57600080fd5b6114ba838284611b28565b50505092915050565b6000813590506114d281611b7b565b92915050565b6000602082840312156114ea57600080fd5b600082013567ffffffffffffffff81111561150457600080fd5b6115108482850161146f565b91505092915050565b60008060006060848603121561152e57600080fd5b600084013567ffffffffffffffff81111561154857600080fd5b6115548682870161146f565b935050602084013567ffffffffffffffff81111561157157600080fd5b61157d8682870161146f565b925050604084013567ffffffffffffffff81111561159a57600080fd5b6115a68682870161146f565b9150509250925092565b600080600080600060a086880312156115c857600080fd5b600086013567ffffffffffffffff8111156115e257600080fd5b6115ee8882890161146f565b955050602086013567ffffffffffffffff81111561160b57600080fd5b6116178882890161146f565b945050604086013567ffffffffffffffff81111561163457600080fd5b6116408882890161146f565b935050606086013567ffffffffffffffff81111561165d57600080fd5b6116698882890161146f565b925050608086013567ffffffffffffffff81111561168657600080fd5b6116928882890161146f565b9150509295509295909350565b6000602082840312156116b157600080fd5b60006116bf848285016114c3565b91505092915050565b6116d181611b00565b82525050565b6116e081611b16565b82525050565b60006116f182611ad9565b6116fb8185611ae4565b935061170b818560208601611b37565b61171481611b6a565b840191505092915050565b600061172a82611ad9565b6117348185611af5565b9350611744818560208601611b37565b80840191505092915050565b600061175b82611ace565b6117658185611ae4565b9350611775818560208601611b37565b61177e81611b6a565b840191505092915050565b61179281611b0c565b82525050565b60006117a4828461171f565b915081905092915050565b60006020820190506117c460008301846116c8565b92915050565b600060208201905081810360008301526117e48184611750565b905092915050565b6000602082019050818103600083015261180681846116e6565b905092915050565b6000604082019050818103600083015261182881856116e6565b905061183760208301846116d7565b9392505050565b600060a082019050818103600083015261185881886116e6565b9050818103602083015261186c81876116e6565b9050818103604083015261188081866116e6565b9050818103606083015261189481856116e6565b905081810360808301526118a881846116e6565b90509695505050505050565b600060a08201905081810360008301526118ce8188611750565b905081810360208301526118e28187611750565b905081810360408301526118f68186611750565b9050818103606083015261190a8185611750565b9050818103608083015261191e8184611750565b90509695505050505050565b600060408201905081810360008301526119448185611750565b90506119536020830184611789565b9392505050565b600060208201905061196f6000830184611789565b92915050565b600060408201905061198a6000830185611789565b818103602083015261199c81846116e6565b90509392505050565b600060a0820190506119ba6000830188611789565b6119c76020830187611789565b81810360408301526119d981866116e6565b905081810360608301526119ed81856116e6565b90508181036080830152611a0181846116e6565b90509695505050505050565b600060a082019050611a226000830188611789565b611a2f6020830187611789565b8181036040830152611a418186611750565b90508181036060830152611a558185611750565b90508181036080830152611a698184611750565b90509695505050505050565b6000604051905081810181811067ffffffffffffffff82111715611a9857600080fd5b8060405250919050565b600067ffffffffffffffff821115611ab957600080fd5b601f19601f8301169050602081019050919050565b600081519050919050565b600081519050919050565b600082825260208201905092915050565b600081905092915050565b60008115159050919050565b6000819050919050565b6000611b2182611b0c565b9050919050565b82818337600083830152505050565b60005b83811015611b55578082015181840152602081019050611b3a565b83811115611b64576000848401525b50505050565b6000601f19601f8301169050919050565b611b8481611b0c565b8114611b8f57600080fd5b5056fea365627a7a72315820226e6217f66130a663ece0aa3582fe17c4d8f6f0f2d6bbe7184f22ede07fcb426c6578706572696d656e74616cf564736f6c63430005100040",
  "source": "pragma solidity >=0.4.21 <0.7.0;\r\npragma experimental ABIEncoderV2;\r\nimport \"./VoteLibrary.sol\";\r\n\r\ncontract VoteTracker\r\n{\r\n    string public secret = \"123456\";\r\n\r\n    mapping(uint => VoteLibrary.Vote) public VoteStore;\r\n    uint256 public voterCount = 0;\r\n\r\n    mapping(uint => VoteLibrary.Party) public PartyStore;\r\n    uint256 public partyCount = 0;\r\n\r\n    mapping(uint => VoteLibrary.Identity) public IdentityStore;\r\n    uint256 public identityCount = 0;\r\n\r\n    function registerUser(string memory _email, string memory _birthdate, string memory _gender, string memory _affiliation, string memory _state) public returns(uint256)\r\n    {\r\n        require(checkIfIdCanExist(_email));\r\n        identityCount++;\r\n        IdentityStore[identityCount] = VoteLibrary.Identity(_email, _birthdate, _gender, _affiliation, _state);\r\n        emit IdentityCreate(_email, _birthdate, _gender, _affiliation, _state);\r\n    }\r\n\r\n    function verifyUser(string memory _email) public returns(bool)\r\n    {\r\n        require(!checkIfIdCanExist(_email));\r\n\r\n        return true;\r\n    }\r\n\r\n    function generateVote(string memory _partyName, string memory email, string memory _constituency) public returns(uint256)\r\n    {\r\n        require(!checkIfIdCanExist(email));\r\n        require(checkIfCanVote(email));\r\n        require(!checkIfCanExist(_partyName));\r\n        voterCount++;\r\n        VoteStore[voterCount] = VoteLibrary.Vote(voterCount, block.timestamp, _partyName, email, _constituency);\r\n        uint partyIndex = getParty(_partyName);\r\n        PartyStore[partyIndex].voteCount++;\r\n        emit VoteGenerate(voterCount, block.timestamp, _partyName, email, _constituency);\r\n    }\r\n    \r\n    function createParty(string memory _name) public returns(uint256)\r\n    {\r\n        require(checkIfCanExist(_name));\r\n        partyCount++;\r\n        PartyStore[partyCount] = VoteLibrary.Party(_name, 0);\r\n        emit PartyCreate(_name, 0);\r\n    }\r\n\r\n    function getAdminKey() public returns(string memory)\r\n    {\r\n        return secret;\r\n    }\r\n\r\n    function checkIfCanExist(string memory _namer) private returns(bool)\r\n    {\r\n        for(uint i=1;i<=partyCount;i++)\r\n        {\r\n            string memory partyNamed = PartyStore[i].name;\r\n            if(keccak256(abi.encodePacked((partyNamed))) == keccak256(abi.encodePacked((_namer))))\r\n            {\r\n                return false;\r\n            }\r\n        }\r\n        return true;\r\n    }\r\n\r\n    function checkIfIdCanExist(string memory _namered) private returns(bool)\r\n    {\r\n        for(uint i=1;i<=identityCount;i++)\r\n        {\r\n            string memory idNamed = IdentityStore[i].email;\r\n            if(keccak256(abi.encodePacked((idNamed))) == keccak256(abi.encodePacked((_namered))))\r\n            {\r\n                return false;\r\n            }\r\n        }\r\n        return true;\r\n    }\r\n\r\n    function checkIfCanVote(string memory _adhaarer) private returns(bool)\r\n    {\r\n        for(uint i=1;i<=voterCount;i++)\r\n        {\r\n            string memory voteNamed = VoteStore[i].adhaar;\r\n            if(keccak256(abi.encodePacked((voteNamed))) == keccak256(abi.encodePacked((_adhaarer))))\r\n            {\r\n                return false;\r\n            }\r\n        }\r\n        return true;\r\n    }\r\n\r\n    function getParty(string memory _partyNamer) private returns (uint)\r\n    {\r\n        for(uint i=1;i<=partyCount;i++)\r\n        {\r\n            string memory partyNamed = PartyStore[i].name;\r\n            if(keccak256(abi.encodePacked((partyNamed))) == keccak256(abi.encodePacked((_partyNamer))))\r\n            {\r\n                return i;\r\n            }\r\n        }\r\n    }\r\n\r\n    function getPartyCount() public returns (uint)\r\n    {\r\n        return partyCount;\r\n    }\r\n\r\n    function getNames(uint _id) public returns(uint,string memory)\r\n    {\r\n        require(_id<=partyCount);\r\n        return (PartyStore[_id].voteCount,PartyStore[_id].name);\r\n    }\r\n\r\n    event IdentityCreate(string email, string birthdate, string gender, string affiliation, string state);\r\n    event PartyCreate(string name, uint voteCount);\r\n    event VoteGenerate(uint voteCount, uint time, string partyName, string adhaar, string constituency);\r\n}",
  "sourcePath": "C:\\Users\\Danielle\\Documents\\CS415\\cs458\\CS458-Project\\contracts\\VoteTracker.sol",
  "compiler": {
    "name": "solc",
    "version": "0.5.16+commit.9c3226ce.Emscripten.clang"
  },
  "schemaVersion": "3.4.6",
  "updatedAt": "2022-04-29T18:43:23.897Z",
  "networkType": "ethereum",
  "devdoc": {
    "methods": {}
  },
  "userdoc": {
    "methods": {}
  }
}