{
  "contractName": "VoteTracker",
  "abi": [
    {
      "constant": true,
      "inputs": [
        {
          "name": "",
          "type": "uint256"
        }
      ],
      "name": "VoteStore",
      "outputs": [
        {
          "name": "id",
          "type": "uint256"
        },
        {
          "name": "time",
          "type": "uint256"
        },
        {
          "name": "PartyName",
          "type": "string"
        },
        {
          "name": "adhaar",
          "type": "string"
        },
        {
          "name": "constituency",
          "type": "string"
        }
      ],
      "payable": false,
      "stateMutability": "view",
      "type": "function",
      "signature": "0x339d74a3"
    },
    {
      "constant": true,
      "inputs": [],
      "name": "identityCount",
      "outputs": [
        {
          "name": "",
          "type": "uint256"
        }
      ],
      "payable": false,
      "stateMutability": "view",
      "type": "function",
      "signature": "0x38678ba5"
    },
    {
      "constant": true,
      "inputs": [],
      "name": "voterCount",
      "outputs": [
        {
          "name": "",
          "type": "uint256"
        }
      ],
      "payable": false,
      "stateMutability": "view",
      "type": "function",
      "signature": "0x42169e48"
    },
    {
      "constant": true,
      "inputs": [],
      "name": "partyCount",
      "outputs": [
        {
          "name": "",
          "type": "uint256"
        }
      ],
      "payable": false,
      "stateMutability": "view",
      "type": "function",
      "signature": "0x9eb8e725"
    },
    {
      "constant": true,
      "inputs": [
        {
          "name": "",
          "type": "uint256"
        }
      ],
      "name": "PartyStore",
      "outputs": [
        {
          "name": "name",
          "type": "string"
        },
        {
          "name": "voteCount",
          "type": "uint256"
        }
      ],
      "payable": false,
      "stateMutability": "view",
      "type": "function",
      "signature": "0xb45fd782"
    },
    {
      "constant": true,
      "inputs": [
        {
          "name": "",
          "type": "uint256"
        }
      ],
      "name": "IdentityStore",
      "outputs": [
        {
          "name": "add",
          "type": "string"
        },
        {
          "name": "adhaarNumber",
          "type": "string"
        },
        {
          "name": "email",
          "type": "string"
        }
      ],
      "payable": false,
      "stateMutability": "view",
      "type": "function",
      "signature": "0xb8df43ae"
    },
    {
      "constant": true,
      "inputs": [],
      "name": "secret",
      "outputs": [
        {
          "name": "",
          "type": "string"
        }
      ],
      "payable": false,
      "stateMutability": "view",
      "type": "function",
      "signature": "0xd1efd30d"
    },
    {
      "anonymous": false,
      "inputs": [
        {
          "indexed": false,
          "name": "add",
          "type": "string"
        },
        {
          "indexed": false,
          "name": "adhaarNumber",
          "type": "string"
        },
        {
          "indexed": false,
          "name": "email",
          "type": "string"
        }
      ],
      "name": "IdentityCreate",
      "type": "event",
      "signature": "0x133561d57163d827b6672878a1fbdd752b3d3a77b2170dca0fff4fdaf4dcfe44"
    },
    {
      "anonymous": false,
      "inputs": [
        {
          "indexed": false,
          "name": "name",
          "type": "string"
        },
        {
          "indexed": false,
          "name": "voteCount",
          "type": "uint256"
        }
      ],
      "name": "PartyCreate",
      "type": "event",
      "signature": "0x2b0eeee174d41d45c8b5c15a69654052c8d29819fe75dcf785bb428e343f0655"
    },
    {
      "anonymous": false,
      "inputs": [
        {
          "indexed": false,
          "name": "voteCount",
          "type": "uint256"
        },
        {
          "indexed": false,
          "name": "time",
          "type": "uint256"
        },
        {
          "indexed": false,
          "name": "partyName",
          "type": "string"
        },
        {
          "indexed": false,
          "name": "adhaar",
          "type": "string"
        },
        {
          "indexed": false,
          "name": "constituency",
          "type": "string"
        }
      ],
      "name": "VoteGenerate",
      "type": "event",
      "signature": "0x13c5e646d5829eacc1885d8609b921c6e6f30dcd63a0a7610a2ed75e6c86fae2"
    },
    {
      "constant": false,
      "inputs": [
        {
          "name": "_add",
          "type": "string"
        },
        {
          "name": "_adhaarNumber",
          "type": "string"
        },
        {
          "name": "_email",
          "type": "string"
        }
      ],
      "name": "registerUser",
      "outputs": [
        {
          "name": "",
          "type": "uint256"
        }
      ],
      "payable": false,
      "stateMutability": "nonpayable",
      "type": "function",
      "signature": "0xd637dcfa"
    },
    {
      "constant": false,
      "inputs": [
        {
          "name": "_adder",
          "type": "string"
        },
        {
          "name": "_partyName",
          "type": "string"
        },
        {
          "name": "_adhaar",
          "type": "string"
        },
        {
          "name": "_constituency",
          "type": "string"
        }
      ],
      "name": "generateVote",
      "outputs": [
        {
          "name": "",
          "type": "uint256"
        }
      ],
      "payable": false,
      "stateMutability": "nonpayable",
      "type": "function",
      "signature": "0x20a6f49f"
    },
    {
      "constant": false,
      "inputs": [
        {
          "name": "_name",
          "type": "string"
        }
      ],
      "name": "createParty",
      "outputs": [
        {
          "name": "",
          "type": "uint256"
        }
      ],
      "payable": false,
      "stateMutability": "nonpayable",
      "type": "function",
      "signature": "0x004094db"
    },
    {
      "constant": false,
      "inputs": [],
      "name": "getAdminKey",
      "outputs": [
        {
          "name": "",
          "type": "string"
        }
      ],
      "payable": false,
      "stateMutability": "nonpayable",
      "type": "function",
      "signature": "0x4834088b"
    },
    {
      "constant": false,
      "inputs": [],
      "name": "getPartyCount",
      "outputs": [
        {
          "name": "",
          "type": "uint256"
        }
      ],
      "payable": false,
      "stateMutability": "nonpayable",
      "type": "function",
      "signature": "0x60b960e5"
    },
    {
      "constant": false,
      "inputs": [
        {
          "name": "_id",
          "type": "uint256"
        }
      ],
      "name": "getNames",
      "outputs": [
        {
          "name": "",
          "type": "uint256"
        },
        {
          "name": "",
          "type": "string"
        }
      ],
      "payable": false,
      "stateMutability": "nonpayable",
      "type": "function",
      "signature": "0x5718e17b"
    }
  ],
  "bytecode": "0x60806040526040805190810160405280600681526020017f3132333435360000000000000000000000000000000000000000000000000000815250600090805190602001906200005192919062000075565b506000600255600060045560006006553480156200006e57600080fd5b5062000124565b828054600181600116156101000203166002900490600052602060002090601f016020900481019282601f10620000b857805160ff1916838001178555620000e9565b82800160010185558215620000e9579182015b82811115620000e8578251825591602001919060010190620000cb565b5b509050620000f89190620000fc565b5090565b6200012191905b808211156200011d57600081600090555060010162000103565b5090565b90565b611dcc80620001346000396000f3fe6080604052600436106100c4576000357c0100000000000000000000000000000000000000000000000000000000900463ffffffff1680624094db146100c957806320a6f49f14610106578063339d74a31461014357806338678ba51461018457806342169e48146101af5780634834088b146101da5780635718e17b1461020557806360b960e5146102435780639eb8e7251461026e578063b45fd78214610299578063b8df43ae146102d7578063d1efd30d14610316578063d637dcfa14610341575b600080fd5b3480156100d557600080fd5b506100f060048036036100eb9190810190611805565b61037e565b6040516100fd9190611b8f565b60405180910390f35b34801561011257600080fd5b5061012d600480360361012891908101906118dd565b61043a565b60405161013a9190611b8f565b60405180910390f35b34801561014f57600080fd5b5061016a600480360361016591908101906119a0565b6105cb565b60405161017b959493929190611c42565b60405180910390f35b34801561019057600080fd5b506101996107c9565b6040516101a69190611b8f565b60405180910390f35b3480156101bb57600080fd5b506101c46107cf565b6040516101d19190611b8f565b60405180910390f35b3480156101e657600080fd5b506101ef6107d5565b6040516101fc9190611a75565b60405180910390f35b34801561021157600080fd5b5061022c600480360361022791908101906119a0565b610877565b60405161023a929190611baa565b60405180910390f35b34801561024f57600080fd5b5061025861095e565b6040516102659190611b8f565b60405180910390f35b34801561027a57600080fd5b50610283610968565b6040516102909190611b8f565b60405180910390f35b3480156102a557600080fd5b506102c060048036036102bb91908101906119a0565b61096e565b6040516102ce929190611b5f565b60405180910390f35b3480156102e357600080fd5b506102fe60048036036102f991908101906119a0565b610a2a565b60405161030d93929190611b13565b60405180910390f35b34801561032257600080fd5b5061032b610c1c565b6040516103389190611a53565b60405180910390f35b34801561034d57600080fd5b5061036860048036036103639190810190611846565b610cba565b6040516103759190611b8f565b60405180910390f35b600061038982610dc3565b151561039457600080fd5b6004600081548092919060010191905055506040805190810160405280838152602001600081525060036000600454815260200190815260200160002060008201518160000190805190602001906103ed9291906116f6565b50602082015181600101559050507f2b0eeee174d41d45c8b5c15a69654052c8d29819fe75dcf785bb428e343f065582600060405161042d929190611a97565b60405180910390a1919050565b600061044585610f9b565b15151561045157600080fd5b61045a83611173565b15151561046657600080fd5b61046f8361134b565b151561047a57600080fd5b61048384610dc3565b15151561048f57600080fd5b60026000815480929190600101919050555060a060405190810160405280600254815260200142815260200185815260200184815260200183815250600160006002548152602001908152602001600020600082015181600001556020820151816001015560408201518160020190805190602001906105109291906116f6565b50606082015181600301908051906020019061052d9291906116f6565b50608082015181600401908051906020019061054a9291906116f6565b50905050600061055985611523565b905060036000828152602001908152602001600020600101600081548092919060010191905055507f13c5e646d5829eacc1885d8609b921c6e6f30dcd63a0a7610a2ed75e6c86fae2600254428787876040516105ba959493929190611bda565b60405180910390a150949350505050565b6001602052806000526040600020600091509050806000015490806001015490806002018054600181600116156101000203166002900480601f0160208091040260200160405190810160405280929190818152602001828054600181600116156101000203166002900480156106835780601f1061065857610100808354040283529160200191610683565b820191906000526020600020905b81548152906001019060200180831161066657829003601f168201915b505050505090806003018054600181600116156101000203166002900480601f0160208091040260200160405190810160405280929190818152602001828054600181600116156101000203166002900480156107215780601f106106f657610100808354040283529160200191610721565b820191906000526020600020905b81548152906001019060200180831161070457829003601f168201915b505050505090806004018054600181600116156101000203166002900480601f0160208091040260200160405190810160405280929190818152602001828054600181600116156101000203166002900480156107bf5780601f10610794576101008083540402835291602001916107bf565b820191906000526020600020905b8154815290600101906020018083116107a257829003601f168201915b5050505050905085565b60065481565b60025481565b606060008054600181600116156101000203166002900480601f01602080910402602001604051908101604052809291908181526020018280546001816001161561010002031660029004801561086d5780601f106108425761010080835404028352916020019161086d565b820191906000526020600020905b81548152906001019060200180831161085057829003601f168201915b5050505050905090565b60006060600454831115151561088c57600080fd5b600360008481526020019081526020016000206001015460036000858152602001908152602001600020600001808054600181600116156101000203166002900480601f01602080910402602001604051908101604052809291908181526020018280546001816001161561010002031660029004801561094e5780601f106109235761010080835404028352916020019161094e565b820191906000526020600020905b81548152906001019060200180831161093157829003601f168201915b5050505050905091509150915091565b6000600454905090565b60045481565b6003602052806000526040600020600091509050806000018054600181600116156101000203166002900480601f016020809104026020016040519081016040528092919081815260200182805460018160011615610100020316600290048015610a1a5780601f106109ef57610100808354040283529160200191610a1a565b820191906000526020600020905b8154815290600101906020018083116109fd57829003601f168201915b5050505050908060010154905082565b6005602052806000526040600020600091509050806000018054600181600116156101000203166002900480601f016020809104026020016040519081016040528092919081815260200182805460018160011615610100020316600290048015610ad65780601f10610aab57610100808354040283529160200191610ad6565b820191906000526020600020905b815481529060010190602001808311610ab957829003601f168201915b505050505090806001018054600181600116156101000203166002900480601f016020809104026020016040519081016040528092919081815260200182805460018160011615610100020316600290048015610b745780601f10610b4957610100808354040283529160200191610b74565b820191906000526020600020905b815481529060010190602001808311610b5757829003601f168201915b505050505090806002018054600181600116156101000203166002900480601f016020809104026020016040519081016040528092919081815260200182805460018160011615610100020316600290048015610c125780601f10610be757610100808354040283529160200191610c12565b820191906000526020600020905b815481529060010190602001808311610bf557829003601f168201915b5050505050905083565b60008054600181600116156101000203166002900480601f016020809104026020016040519081016040528092919081815260200182805460018160011615610100020316600290048015610cb25780601f10610c8757610100808354040283529160200191610cb2565b820191906000526020600020905b815481529060010190602001808311610c9557829003601f168201915b505050505081565b6000610cc584610f9b565b1515610cd057600080fd5b610cd983611173565b1515610ce457600080fd5b600660008154809291906001019190505550606060405190810160405280858152602001848152602001838152506005600060065481526020019081526020016000206000820151816000019080519060200190610d439291906116f6565b506020820151816001019080519060200190610d609291906116f6565b506040820151816002019080519060200190610d7d9291906116f6565b509050507f133561d57163d827b6672878a1fbdd752b3d3a77b2170dca0fff4fdaf4dcfe44848484604051610db493929190611ac7565b60405180910390a19392505050565b600080600190505b60045481111515610f90576060600360008381526020019081526020016000206000018054600181600116156101000203166002900480601f016020809104026020016040519081016040528092919081815260200182805460018160011615610100020316600290048015610e825780601f10610e5757610100808354040283529160200191610e82565b820191906000526020600020905b815481529060010190602001808311610e6557829003601f168201915b50505050509050836040516020018082805190602001908083835b602083101515610ec25780518252602082019150602081019050602083039250610e9d565b6001836020036101000a03801982511681845116808217855250505050505090500191505060405160208183030381529060405280519060200120816040516020018082805190602001908083835b602083101515610f365780518252602082019150602081019050602083039250610f11565b6001836020036101000a038019825116818451168082178552505050505050905001915050604051602081830303815290604052805190602001201415610f8257600092505050610f96565b508080600101915050610dcb565b50600190505b919050565b600080600190505b60065481111515611168576060600560008381526020019081526020016000206000018054600181600116156101000203166002900480601f01602080910402602001604051908101604052809291908181526020018280546001816001161561010002031660029004801561105a5780601f1061102f5761010080835404028352916020019161105a565b820191906000526020600020905b81548152906001019060200180831161103d57829003601f168201915b50505050509050836040516020018082805190602001908083835b60208310151561109a5780518252602082019150602081019050602083039250611075565b6001836020036101000a03801982511681845116808217855250505050505090500191505060405160208183030381529060405280519060200120816040516020018082805190602001908083835b60208310151561110e57805182526020820191506020810190506020830392506110e9565b6001836020036101000a03801982511681845116808217855250505050505090500191505060405160208183030381529060405280519060200120141561115a5760009250505061116e565b508080600101915050610fa3565b50600190505b919050565b600080600190505b60065481111515611340576060600560008381526020019081526020016000206001018054600181600116156101000203166002900480601f0160208091040260200160405190810160405280929190818152602001828054600181600116156101000203166002900480156112325780601f1061120757610100808354040283529160200191611232565b820191906000526020600020905b81548152906001019060200180831161121557829003601f168201915b50505050509050836040516020018082805190602001908083835b602083101515611272578051825260208201915060208101905060208303925061124d565b6001836020036101000a03801982511681845116808217855250505050505090500191505060405160208183030381529060405280519060200120816040516020018082805190602001908083835b6020831015156112e657805182526020820191506020810190506020830392506112c1565b6001836020036101000a03801982511681845116808217855250505050505090500191505060405160208183030381529060405280519060200120141561133257600092505050611346565b50808060010191505061117b565b50600190505b919050565b600080600190505b60025481111515611518576060600160008381526020019081526020016000206003018054600181600116156101000203166002900480601f01602080910402602001604051908101604052809291908181526020018280546001816001161561010002031660029004801561140a5780601f106113df5761010080835404028352916020019161140a565b820191906000526020600020905b8154815290600101906020018083116113ed57829003601f168201915b50505050509050836040516020018082805190602001908083835b60208310151561144a5780518252602082019150602081019050602083039250611425565b6001836020036101000a03801982511681845116808217855250505050505090500191505060405160208183030381529060405280519060200120816040516020018082805190602001908083835b6020831015156114be5780518252602082019150602081019050602083039250611499565b6001836020036101000a03801982511681845116808217855250505050505090500191505060405160208183030381529060405280519060200120141561150a5760009250505061151e565b508080600101915050611353565b50600190505b919050565b600080600190505b600454811115156116ef576060600360008381526020019081526020016000206000018054600181600116156101000203166002900480601f0160208091040260200160405190810160405280929190818152602001828054600181600116156101000203166002900480156115e25780601f106115b7576101008083540402835291602001916115e2565b820191906000526020600020905b8154815290600101906020018083116115c557829003601f168201915b50505050509050836040516020018082805190602001908083835b60208310151561162257805182526020820191506020810190506020830392506115fd565b6001836020036101000a03801982511681845116808217855250505050505090500191505060405160208183030381529060405280519060200120816040516020018082805190602001908083835b6020831015156116965780518252602082019150602081019050602083039250611671565b6001836020036101000a0380198251168184511680821785525050505050509050019150506040516020818303038152906040528051906020012014156116e15781925050506116f1565b50808060010191505061152b565b505b919050565b828054600181600116156101000203166002900490600052602060002090601f016020900481019282601f1061173757805160ff1916838001178555611765565b82800160010185558215611765579182015b82811115611764578251825591602001919060010190611749565b5b5090506117729190611776565b5090565b61179891905b8082111561179457600081600090555060010161177c565b5090565b90565b600082601f83011215156117ae57600080fd5b81356117c16117bc82611cd7565b611caa565b915080825260208301602083018583830111156117dd57600080fd5b6117e8838284611d3f565b50505092915050565b60006117fd8235611d23565b905092915050565b60006020828403121561181757600080fd5b600082013567ffffffffffffffff81111561183157600080fd5b61183d8482850161179b565b91505092915050565b60008060006060848603121561185b57600080fd5b600084013567ffffffffffffffff81111561187557600080fd5b6118818682870161179b565b935050602084013567ffffffffffffffff81111561189e57600080fd5b6118aa8682870161179b565b925050604084013567ffffffffffffffff8111156118c757600080fd5b6118d38682870161179b565b9150509250925092565b600080600080608085870312156118f357600080fd5b600085013567ffffffffffffffff81111561190d57600080fd5b6119198782880161179b565b945050602085013567ffffffffffffffff81111561193657600080fd5b6119428782880161179b565b935050604085013567ffffffffffffffff81111561195f57600080fd5b61196b8782880161179b565b925050606085013567ffffffffffffffff81111561198857600080fd5b6119948782880161179b565b91505092959194509250565b6000602082840312156119b257600080fd5b60006119c0848285016117f1565b91505092915050565b6119d281611d2d565b82525050565b60006119e382611d0e565b8084526119f7816020860160208601611d4e565b611a0081611d81565b602085010191505092915050565b6000611a1982611d03565b808452611a2d816020860160208601611d4e565b611a3681611d81565b602085010191505092915050565b611a4d81611d19565b82525050565b60006020820190508181036000830152611a6d8184611a0e565b905092915050565b60006020820190508181036000830152611a8f81846119d8565b905092915050565b60006040820190508181036000830152611ab181856119d8565b9050611ac060208301846119c9565b9392505050565b60006060820190508181036000830152611ae181866119d8565b90508181036020830152611af581856119d8565b90508181036040830152611b0981846119d8565b9050949350505050565b60006060820190508181036000830152611b2d8186611a0e565b90508181036020830152611b418185611a0e565b90508181036040830152611b558184611a0e565b9050949350505050565b60006040820190508181036000830152611b798185611a0e565b9050611b886020830184611a44565b9392505050565b6000602082019050611ba46000830184611a44565b92915050565b6000604082019050611bbf6000830185611a44565b8181036020830152611bd181846119d8565b90509392505050565b600060a082019050611bef6000830188611a44565b611bfc6020830187611a44565b8181036040830152611c0e81866119d8565b90508181036060830152611c2281856119d8565b90508181036080830152611c3681846119d8565b90509695505050505050565b600060a082019050611c576000830188611a44565b611c646020830187611a44565b8181036040830152611c768186611a0e565b90508181036060830152611c8a8185611a0e565b90508181036080830152611c9e8184611a0e565b90509695505050505050565b6000604051905081810181811067ffffffffffffffff82111715611ccd57600080fd5b8060405250919050565b600067ffffffffffffffff821115611cee57600080fd5b601f19601f8301169050602081019050919050565b600081519050919050565b600081519050919050565b6000819050919050565b6000819050919050565b6000611d3882611d19565b9050919050565b82818337600083830152505050565b60005b83811015611d6c578082015181840152602081019050611d51565b83811115611d7b576000848401525b50505050565b6000601f19601f830116905091905056fea265627a7a72305820dcc24a5665c359889882962cc7fcf91d580b8c8fc4aced2e5c71c81ae369a3196c6578706572696d656e74616cf50037",
  "source": "pragma solidity >=0.4.21 <0.7.0;\npragma experimental ABIEncoderV2;\nimport \"./VoteLibrary.sol\";\n\ncontract VoteTracker\n{\n    string public secret = \"123456\";\n\n    mapping(uint => VoteLibrary.Vote) public VoteStore;\n    uint256 public voterCount = 0;\n\n    mapping(uint => VoteLibrary.Party) public PartyStore;\n    uint256 public partyCount = 0;\n\n    mapping(uint => VoteLibrary.Identity) public IdentityStore;\n    uint256 public identityCount = 0;\n\n    function registerUser(string memory _add, string memory _adhaarNumber, string memory _email) public returns(uint256)\n    {\n        require(checkIfAccCanExist(_add));\n        require(checkIfIdCanExist(_adhaarNumber));\n        identityCount++;\n        IdentityStore[identityCount] = VoteLibrary.Identity(_add,_adhaarNumber,_email);\n        emit IdentityCreate(_add,_adhaarNumber,_email);\n    }\n\n    function generateVote(string memory _adder, string memory _partyName, string memory _adhaar, string memory _constituency) public returns(uint256)\n    {\n        require(!checkIfAccCanExist(_adder));\n        require(!checkIfIdCanExist(_adhaar));\n        require(checkIfCanVote(_adhaar));\n        require(!checkIfCanExist(_partyName));\n        voterCount++;\n        VoteStore[voterCount] = VoteLibrary.Vote(voterCount, block.timestamp, _partyName, _adhaar, _constituency);\n        uint partyIndex = getParty(_partyName);\n        PartyStore[partyIndex].voteCount++;\n        emit VoteGenerate(voterCount, block.timestamp, _partyName, _adhaar, _constituency);\n    }\n    \n    function createParty(string memory _name) public returns(uint256)\n    {\n        require(checkIfCanExist(_name));\n        partyCount++;\n        PartyStore[partyCount] = VoteLibrary.Party(_name, 0);\n        emit PartyCreate(_name, 0);\n    }\n\n    function getAdminKey() public returns(string memory)\n    {\n        return secret;\n    }\n\n    function checkIfCanExist(string memory _namer) private returns(bool)\n    {\n        for(uint i=1;i<=partyCount;i++)\n        {\n            string memory partyNamed = PartyStore[i].name;\n            if(keccak256(abi.encodePacked((partyNamed))) == keccak256(abi.encodePacked((_namer))))\n            {\n                return false;\n            }\n        }\n        return true;\n    }\n\n    function checkIfIdCanExist(string memory _namered) private returns(bool)\n    {\n        for(uint i=1;i<=identityCount;i++)\n        {\n            string memory idNamed = IdentityStore[i].adhaarNumber;\n            if(keccak256(abi.encodePacked((idNamed))) == keccak256(abi.encodePacked((_namered))))\n            {\n                return false;\n            }\n        }\n        return true;\n    }\n\n    function checkIfAccCanExist(string memory _namerer) private returns(bool)\n    {\n        for(uint i=1;i<=identityCount;i++)\n        {\n            string memory idNamed = IdentityStore[i].add;\n            if(keccak256(abi.encodePacked((idNamed))) == keccak256(abi.encodePacked((_namerer))))\n            {\n                return false;\n            }\n        }\n        return true;\n    }\n\n    function checkIfCanVote(string memory _adhaarer) private returns(bool)\n    {\n        for(uint i=1;i<=voterCount;i++)\n        {\n            string memory voteNamed = VoteStore[i].adhaar;\n            if(keccak256(abi.encodePacked((voteNamed))) == keccak256(abi.encodePacked((_adhaarer))))\n            {\n                return false;\n            }\n        }\n        return true;\n    }\n\n    function getParty(string memory _partyNamer) private returns (uint)\n    {\n        for(uint i=1;i<=partyCount;i++)\n        {\n            string memory partyNamed = PartyStore[i].name;\n            if(keccak256(abi.encodePacked((partyNamed))) == keccak256(abi.encodePacked((_partyNamer))))\n            {\n                return i;\n            }\n        }\n    }\n\n    function getPartyCount() public returns (uint)\n    {\n        return partyCount;\n    }\n\n    function getNames(uint _id) public returns(uint,string memory)\n    {\n        require(_id<=partyCount);\n        return (PartyStore[_id].voteCount,PartyStore[_id].name);\n    }\n\n    event IdentityCreate(string add, string adhaarNumber, string email);\n    event PartyCreate(string name, uint voteCount);\n    event VoteGenerate(uint voteCount, uint time, string partyName, string adhaar, string constituency);\n}",
  "sourcePath": "D:/E-voting/TSEC Hacks/contracts/VoteTracker.sol",
  "compiler": {
    "name": "solc",
    "version": "0.5.0+commit.1d4f565a.Emscripten.clang"
  },
  "schemaVersion": "3.0.1",
  "updatedAt": "2020-07-11T06:12:43.394Z",
  "devdoc": {
    "methods": {}
  },
  "userdoc": {
    "methods": {}
  }
}